{
	"contracts/DGameApp.sol": {
		"DGameApp": {
			"abi": [
				{
					"inputs": [],
					"name": "Balance",
					"outputs": [
						{
							"internalType": "uint256",
							"name": "",
							"type": "uint256"
						}
					],
					"stateMutability": "view",
					"type": "function"
				},
				{
					"inputs": [
						{
							"internalType": "address",
							"name": "",
							"type": "address"
						},
						{
							"internalType": "uint256",
							"name": "",
							"type": "uint256"
						}
					],
					"name": "bets",
					"outputs": [
						{
							"internalType": "uint256",
							"name": "id",
							"type": "uint256"
						},
						{
							"internalType": "address",
							"name": "owner",
							"type": "address"
						},
						{
							"internalType": "uint256",
							"name": "option",
							"type": "uint256"
						},
						{
							"internalType": "uint256",
							"name": "timeSpan",
							"type": "uint256"
						},
						{
							"internalType": "uint256",
							"name": "betPrice",
							"type": "uint256"
						}
					],
					"stateMutability": "view",
					"type": "function"
				},
				{
					"inputs": [
						{
							"internalType": "address",
							"name": "_owner",
							"type": "address"
						}
					],
					"name": "getAllBet",
					"outputs": [
						{
							"components": [
								{
									"internalType": "uint256",
									"name": "id",
									"type": "uint256"
								},
								{
									"internalType": "address",
									"name": "owner",
									"type": "address"
								},
								{
									"internalType": "uint256",
									"name": "option",
									"type": "uint256"
								},
								{
									"internalType": "uint256",
									"name": "timeSpan",
									"type": "uint256"
								},
								{
									"internalType": "uint256",
									"name": "betPrice",
									"type": "uint256"
								}
							],
							"internalType": "struct DGameApp.Bet[]",
							"name": "",
							"type": "tuple[]"
						}
					],
					"stateMutability": "view",
					"type": "function"
				},
				{
					"inputs": [],
					"name": "getAllPlayers",
					"outputs": [
						{
							"components": [
								{
									"internalType": "uint256",
									"name": "id",
									"type": "uint256"
								},
								{
									"internalType": "address",
									"name": "owner",
									"type": "address"
								},
								{
									"internalType": "uint256",
									"name": "option",
									"type": "uint256"
								},
								{
									"internalType": "uint256",
									"name": "timeSpan",
									"type": "uint256"
								},
								{
									"internalType": "uint256",
									"name": "betPrice",
									"type": "uint256"
								}
							],
							"internalType": "struct DGameApp.Bet[]",
							"name": "",
							"type": "tuple[]"
						}
					],
					"stateMutability": "view",
					"type": "function"
				},
				{
					"inputs": [
						{
							"internalType": "uint256",
							"name": "_i",
							"type": "uint256"
						}
					],
					"name": "getBet",
					"outputs": [
						{
							"components": [
								{
									"internalType": "uint256",
									"name": "id",
									"type": "uint256"
								},
								{
									"internalType": "address",
									"name": "owner",
									"type": "address"
								},
								{
									"internalType": "uint256",
									"name": "option",
									"type": "uint256"
								},
								{
									"internalType": "uint256",
									"name": "timeSpan",
									"type": "uint256"
								},
								{
									"internalType": "uint256",
									"name": "betPrice",
									"type": "uint256"
								}
							],
							"internalType": "struct DGameApp.Bet",
							"name": "",
							"type": "tuple"
						}
					],
					"stateMutability": "view",
					"type": "function"
				},
				{
					"inputs": [
						{
							"internalType": "uint256",
							"name": "_betNumber",
							"type": "uint256"
						},
						{
							"internalType": "uint256",
							"name": "_betprice",
							"type": "uint256"
						}
					],
					"name": "updatebalance",
					"outputs": [],
					"stateMutability": "nonpayable",
					"type": "function"
				}
			],
			"devdoc": {
				"kind": "dev",
				"methods": {},
				"version": 1
			},
			"evm": {
				"assembly": "    /* \"contracts/DGameApp.sol\":57:1261  contract DGameApp  {... */\n  mstore(0x40, 0x80)\n    /* \"contracts/DGameApp.sol\":424:428  1000 */\n  0x03e8\n    /* \"contracts/DGameApp.sol\":402:428  uint public Balance = 1000 */\n  0x01\n  sstore\n    /* \"contracts/DGameApp.sol\":57:1261  contract DGameApp  {... */\n  callvalue\n  dup1\n  iszero\n  tag_1\n  jumpi\n  0x00\n  dup1\n  revert\ntag_1:\n  pop\n  dataSize(sub_0)\n  dup1\n  dataOffset(sub_0)\n  0x00\n  codecopy\n  0x00\n  return\nstop\n\nsub_0: assembly {\n        /* \"contracts/DGameApp.sol\":57:1261  contract DGameApp  {... */\n      mstore(0x40, 0x80)\n      callvalue\n      dup1\n      iszero\n      tag_1\n      jumpi\n      0x00\n      dup1\n      revert\n    tag_1:\n      pop\n      jumpi(tag_2, lt(calldatasize, 0x04))\n      shr(0xe0, calldataload(0x00))\n      dup1\n      0x061e494f\n      eq\n      tag_3\n      jumpi\n      dup1\n      0x0ef67887\n      eq\n      tag_4\n      jumpi\n      dup1\n      0x4a39ec90\n      eq\n      tag_5\n      jumpi\n      dup1\n      0xa61ce09b\n      eq\n      tag_6\n      jumpi\n      dup1\n      0xb8fce653\n      eq\n      tag_7\n      jumpi\n      dup1\n      0xefa1c482\n      eq\n      tag_8\n      jumpi\n    tag_2:\n      0x00\n      dup1\n      revert\n        /* \"contracts/DGameApp.sol\":953:1049  function getBet(uint _i) public view returns (Bet memory){... */\n    tag_3:\n      tag_9\n      0x04\n      dup1\n      calldatasize\n      sub\n      dup2\n      add\n      swap1\n      tag_10\n      swap2\n      swap1\n      tag_11\n      jump\t// in\n    tag_10:\n      tag_12\n      jump\t// in\n    tag_9:\n      mload(0x40)\n      tag_13\n      swap2\n      swap1\n      tag_14\n      jump\t// in\n    tag_13:\n      mload(0x40)\n      dup1\n      swap2\n      sub\n      swap1\n      return\n        /* \"contracts/DGameApp.sol\":402:428  uint public Balance = 1000 */\n    tag_4:\n      tag_15\n      tag_16\n      jump\t// in\n    tag_15:\n      mload(0x40)\n      tag_17\n      swap2\n      swap1\n      tag_18\n      jump\t// in\n    tag_17:\n      mload(0x40)\n      dup1\n      swap2\n      sub\n      swap1\n      return\n        /* \"contracts/DGameApp.sol\":360:397  mapping(address => Bet[]) public bets */\n    tag_5:\n      tag_19\n      0x04\n      dup1\n      calldatasize\n      sub\n      dup2\n      add\n      swap1\n      tag_20\n      swap2\n      swap1\n      tag_21\n      jump\t// in\n    tag_20:\n      tag_22\n      jump\t// in\n    tag_19:\n      mload(0x40)\n      tag_23\n      swap6\n      swap5\n      swap4\n      swap3\n      swap2\n      swap1\n      tag_24\n      jump\t// in\n    tag_23:\n      mload(0x40)\n      dup1\n      swap2\n      sub\n      swap1\n      return\n        /* \"contracts/DGameApp.sol\":434:949  function updatebalance(uint _betNumber, uint _betprice)  public  {... */\n    tag_6:\n      tag_25\n      0x04\n      dup1\n      calldatasize\n      sub\n      dup2\n      add\n      swap1\n      tag_26\n      swap2\n      swap1\n      tag_27\n      jump\t// in\n    tag_26:\n      tag_28\n      jump\t// in\n    tag_25:\n      stop\n        /* \"contracts/DGameApp.sol\":1053:1159  function getAllBet(address _owner) public view returns (Bet[] memory ){... */\n    tag_7:\n      tag_29\n      0x04\n      dup1\n      calldatasize\n      sub\n      dup2\n      add\n      swap1\n      tag_30\n      swap2\n      swap1\n      tag_31\n      jump\t// in\n    tag_30:\n      tag_32\n      jump\t// in\n    tag_29:\n      mload(0x40)\n      tag_33\n      swap2\n      swap1\n      tag_34\n      jump\t// in\n    tag_33:\n      mload(0x40)\n      dup1\n      swap2\n      sub\n      swap1\n      return\n        /* \"contracts/DGameApp.sol\":1163:1259  function getAllPlayers() public view returns (Bet[] memory){... */\n    tag_8:\n      tag_35\n      tag_36\n      jump\t// in\n    tag_35:\n      mload(0x40)\n      tag_37\n      swap2\n      swap1\n      tag_34\n      jump\t// in\n    tag_37:\n      mload(0x40)\n      dup1\n      swap2\n      sub\n      swap1\n      return\n        /* \"contracts/DGameApp.sol\":953:1049  function getBet(uint _i) public view returns (Bet memory){... */\n    tag_12:\n        /* \"contracts/DGameApp.sol\":999:1009  Bet memory */\n      tag_38\n      tag_39\n      jump\t// in\n    tag_38:\n        /* \"contracts/DGameApp.sol\":1023:1027  bets */\n      0x00\n        /* \"contracts/DGameApp.sol\":1023:1039  bets[msg.sender] */\n      dup1\n        /* \"contracts/DGameApp.sol\":1028:1038  msg.sender */\n      caller\n        /* \"contracts/DGameApp.sol\":1023:1039  bets[msg.sender] */\n      0xffffffffffffffffffffffffffffffffffffffff\n      and\n      0xffffffffffffffffffffffffffffffffffffffff\n      and\n      dup2\n      mstore\n      0x20\n      add\n      swap1\n      dup2\n      mstore\n      0x20\n      add\n      0x00\n      keccak256\n        /* \"contracts/DGameApp.sol\":1040:1042  _i */\n      dup3\n        /* \"contracts/DGameApp.sol\":1023:1043  bets[msg.sender][_i] */\n      dup2\n      sload\n      dup2\n      lt\n      tag_41\n      jumpi\n      tag_42\n      tag_43\n      jump\t// in\n    tag_42:\n    tag_41:\n      swap1\n      0x00\n      mstore\n      keccak256(0x00, 0x20)\n      swap1\n      0x05\n      mul\n      add\n        /* \"contracts/DGameApp.sol\":1016:1043  return bets[msg.sender][_i] */\n      mload(0x40)\n      dup1\n      0xa0\n      add\n      0x40\n      mstore\n      swap1\n      dup2\n      0x00\n      dup3\n      add\n      sload\n      dup2\n      mstore\n      0x20\n      add\n      0x01\n      dup3\n      add\n      0x00\n      swap1\n      sload\n      swap1\n      0x0100\n      exp\n      swap1\n      div\n      0xffffffffffffffffffffffffffffffffffffffff\n      and\n      0xffffffffffffffffffffffffffffffffffffffff\n      and\n      0xffffffffffffffffffffffffffffffffffffffff\n      and\n      dup2\n      mstore\n      0x20\n      add\n      0x02\n      dup3\n      add\n      sload\n      dup2\n      mstore\n      0x20\n      add\n      0x03\n      dup3\n      add\n      sload\n      dup2\n      mstore\n      0x20\n      add\n      0x04\n      dup3\n      add\n      sload\n      dup2\n      mstore\n      pop\n      pop\n      swap1\n      pop\n        /* \"contracts/DGameApp.sol\":953:1049  function getBet(uint _i) public view returns (Bet memory){... */\n      swap2\n      swap1\n      pop\n      jump\t// out\n        /* \"contracts/DGameApp.sol\":402:428  uint public Balance = 1000 */\n    tag_16:\n      sload(0x01)\n      dup2\n      jump\t// out\n        /* \"contracts/DGameApp.sol\":360:397  mapping(address => Bet[]) public bets */\n    tag_22:\n      mstore(0x20, 0x00)\n      dup2\n      0x00\n      mstore\n      keccak256(0x00, 0x40)\n      dup2\n      dup2\n      sload\n      dup2\n      lt\n      tag_45\n      jumpi\n      0x00\n      dup1\n      revert\n    tag_45:\n      swap1\n      0x00\n      mstore\n      keccak256(0x00, 0x20)\n      swap1\n      0x05\n      mul\n      add\n      0x00\n      swap2\n      pop\n      swap2\n      pop\n      pop\n      dup1\n      0x00\n      add\n      sload\n      swap1\n      dup1\n      0x01\n      add\n      0x00\n      swap1\n      sload\n      swap1\n      0x0100\n      exp\n      swap1\n      div\n      0xffffffffffffffffffffffffffffffffffffffff\n      and\n      swap1\n      dup1\n      0x02\n      add\n      sload\n      swap1\n      dup1\n      0x03\n      add\n      sload\n      swap1\n      dup1\n      0x04\n      add\n      sload\n      swap1\n      pop\n      dup6\n      jump\t// out\n        /* \"contracts/DGameApp.sol\":434:949  function updatebalance(uint _betNumber, uint _betprice)  public  {... */\n    tag_28:\n        /* \"contracts/DGameApp.sol\":527:529  10 */\n      0x0a\n        /* \"contracts/DGameApp.sol\":513:523  _betNumber */\n      dup3\n        /* \"contracts/DGameApp.sol\":513:529  _betNumber <= 10 */\n      gt\n      iszero\n        /* \"contracts/DGameApp.sol\":505:547  require(_betNumber <= 10 ,\"Invalid Input\") */\n      tag_48\n      jumpi\n      mload(0x40)\n      0x08c379a000000000000000000000000000000000000000000000000000000000\n      dup2\n      mstore\n      0x04\n      add\n      tag_49\n      swap1\n      tag_50\n      jump\t// in\n    tag_49:\n      mload(0x40)\n      dup1\n      swap2\n      sub\n      swap1\n      revert\n    tag_48:\n        /* \"contracts/DGameApp.sol\":573:582  _betprice */\n      dup1\n        /* \"contracts/DGameApp.sol\":562:569  Balance */\n      sload(0x01)\n        /* \"contracts/DGameApp.sol\":562:582  Balance >= _betprice */\n      lt\n      iszero\n        /* \"contracts/DGameApp.sol\":554:607  require(Balance >= _betprice ,\"Insufficient Balance\") */\n      tag_51\n      jumpi\n      mload(0x40)\n      0x08c379a000000000000000000000000000000000000000000000000000000000\n      dup2\n      mstore\n      0x04\n      add\n      tag_52\n      swap1\n      tag_53\n      jump\t// in\n    tag_52:\n      mload(0x40)\n      dup1\n      swap2\n      sub\n      swap1\n      revert\n    tag_51:\n        /* \"contracts/DGameApp.sol\":636:637  0 */\n      0x00\n        /* \"contracts/DGameApp.sol\":623:632  _betprice */\n      dup2\n        /* \"contracts/DGameApp.sol\":623:637  _betprice != 0 */\n      sub\n        /* \"contracts/DGameApp.sol\":615:662  require(_betprice != 0 , \"Betting cannot be 0\") */\n      tag_54\n      jumpi\n      mload(0x40)\n      0x08c379a000000000000000000000000000000000000000000000000000000000\n      dup2\n      mstore\n      0x04\n      add\n      tag_55\n      swap1\n      tag_56\n      jump\t// in\n    tag_55:\n      mload(0x40)\n      dup1\n      swap2\n      sub\n      swap1\n      revert\n    tag_54:\n        /* \"contracts/DGameApp.sol\":670:687  Bet memory newBet */\n      0x00\n        /* \"contracts/DGameApp.sol\":690:864  Bet({... */\n      mload(0x40)\n      dup1\n      0xa0\n      add\n      0x40\n      mstore\n      dup1\n        /* \"contracts/DGameApp.sol\":709:713  bets */\n      0x00\n        /* \"contracts/DGameApp.sol\":709:725  bets[msg.sender] */\n      dup1\n        /* \"contracts/DGameApp.sol\":714:724  msg.sender */\n      caller\n        /* \"contracts/DGameApp.sol\":709:725  bets[msg.sender] */\n      0xffffffffffffffffffffffffffffffffffffffff\n      and\n      0xffffffffffffffffffffffffffffffffffffffff\n      and\n      dup2\n      mstore\n      0x20\n      add\n      swap1\n      dup2\n      mstore\n      0x20\n      add\n      0x00\n      keccak256\n        /* \"contracts/DGameApp.sol\":709:732  bets[msg.sender].length */\n      dup1\n      sload\n      swap1\n      pop\n        /* \"contracts/DGameApp.sol\":690:864  Bet({... */\n      dup2\n      mstore\n      0x20\n      add\n        /* \"contracts/DGameApp.sol\":750:760  msg.sender */\n      caller\n        /* \"contracts/DGameApp.sol\":690:864  Bet({... */\n      0xffffffffffffffffffffffffffffffffffffffff\n      and\n      dup2\n      mstore\n      0x20\n      add\n        /* \"contracts/DGameApp.sol\":779:789  _betNumber */\n      dup5\n        /* \"contracts/DGameApp.sol\":690:864  Bet({... */\n      dup2\n      mstore\n      0x20\n      add\n        /* \"contracts/DGameApp.sol\":810:825  block.timestamp */\n      timestamp\n        /* \"contracts/DGameApp.sol\":690:864  Bet({... */\n      dup2\n      mstore\n      0x20\n      add\n        /* \"contracts/DGameApp.sol\":846:855  _betprice */\n      dup4\n        /* \"contracts/DGameApp.sol\":690:864  Bet({... */\n      dup2\n      mstore\n      pop\n        /* \"contracts/DGameApp.sol\":670:864  Bet memory newBet = Bet({... */\n      swap1\n      pop\n        /* \"contracts/DGameApp.sol\":873:877  bets */\n      0x00\n        /* \"contracts/DGameApp.sol\":873:889  bets[msg.sender] */\n      dup1\n        /* \"contracts/DGameApp.sol\":878:888  msg.sender */\n      caller\n        /* \"contracts/DGameApp.sol\":873:889  bets[msg.sender] */\n      0xffffffffffffffffffffffffffffffffffffffff\n      and\n      0xffffffffffffffffffffffffffffffffffffffff\n      and\n      dup2\n      mstore\n      0x20\n      add\n      swap1\n      dup2\n      mstore\n      0x20\n      add\n      0x00\n      keccak256\n        /* \"contracts/DGameApp.sol\":895:901  newBet */\n      dup2\n        /* \"contracts/DGameApp.sol\":873:902  bets[msg.sender].push(newBet) */\n      swap1\n      dup1\n      0x01\n      dup2\n      sload\n      add\n      dup1\n      dup3\n      sstore\n      dup1\n      swap2\n      pop\n      pop\n      0x01\n      swap1\n      sub\n      swap1\n      0x00\n      mstore\n      keccak256(0x00, 0x20)\n      swap1\n      0x05\n      mul\n      add\n      0x00\n      swap1\n      swap2\n      swap1\n      swap2\n      swap1\n      swap2\n      pop\n      0x00\n      dup3\n      add\n      mload\n      dup2\n      0x00\n      add\n      sstore\n      0x20\n      dup3\n      add\n      mload\n      dup2\n      0x01\n      add\n      exp(0x0100, 0x00)\n      dup2\n      sload\n      dup2\n      0xffffffffffffffffffffffffffffffffffffffff\n      mul\n      not\n      and\n      swap1\n      dup4\n      0xffffffffffffffffffffffffffffffffffffffff\n      and\n      mul\n      or\n      swap1\n      sstore\n      pop\n      0x40\n      dup3\n      add\n      mload\n      dup2\n      0x02\n      add\n      sstore\n      0x60\n      dup3\n      add\n      mload\n      dup2\n      0x03\n      add\n      sstore\n      0x80\n      dup3\n      add\n      mload\n      dup2\n      0x04\n      add\n      sstore\n      pop\n      pop\n        /* \"contracts/DGameApp.sol\":927:936  _betprice */\n      dup2\n        /* \"contracts/DGameApp.sol\":919:926  Balance */\n      sload(0x01)\n        /* \"contracts/DGameApp.sol\":919:936  Balance-_betprice */\n      tag_58\n      swap2\n      swap1\n      tag_59\n      jump\t// in\n    tag_58:\n        /* \"contracts/DGameApp.sol\":911:918  Balance */\n      0x01\n        /* \"contracts/DGameApp.sol\":911:936  Balance=Balance-_betprice */\n      dup2\n      swap1\n      sstore\n      pop\n        /* \"contracts/DGameApp.sol\":499:949  {... */\n      pop\n        /* \"contracts/DGameApp.sol\":434:949  function updatebalance(uint _betNumber, uint _betprice)  public  {... */\n      pop\n      pop\n      jump\t// out\n        /* \"contracts/DGameApp.sol\":1053:1159  function getAllBet(address _owner) public view returns (Bet[] memory ){... */\n    tag_32:\n        /* \"contracts/DGameApp.sol\":1109:1121  Bet[] memory */\n      0x60\n        /* \"contracts/DGameApp.sol\":1140:1144  bets */\n      0x00\n        /* \"contracts/DGameApp.sol\":1140:1152  bets[_owner] */\n      dup1\n        /* \"contracts/DGameApp.sol\":1145:1151  _owner */\n      dup4\n        /* \"contracts/DGameApp.sol\":1140:1152  bets[_owner] */\n      0xffffffffffffffffffffffffffffffffffffffff\n      and\n      0xffffffffffffffffffffffffffffffffffffffff\n      and\n      dup2\n      mstore\n      0x20\n      add\n      swap1\n      dup2\n      mstore\n      0x20\n      add\n      0x00\n      keccak256\n        /* \"contracts/DGameApp.sol\":1133:1152  return bets[_owner] */\n      dup1\n      sload\n      dup1\n      0x20\n      mul\n      0x20\n      add\n      mload(0x40)\n      swap1\n      dup2\n      add\n      0x40\n      mstore\n      dup1\n      swap3\n      swap2\n      swap1\n      dup2\n      dup2\n      mstore\n      0x20\n      add\n      0x00\n      swap1\n    tag_61:\n      dup3\n      dup3\n      lt\n      iszero\n      tag_62\n      jumpi\n      dup4\n      dup3\n      swap1\n      0x00\n      mstore\n      keccak256(0x00, 0x20)\n      swap1\n      0x05\n      mul\n      add\n      mload(0x40)\n      dup1\n      0xa0\n      add\n      0x40\n      mstore\n      swap1\n      dup2\n      0x00\n      dup3\n      add\n      sload\n      dup2\n      mstore\n      0x20\n      add\n      0x01\n      dup3\n      add\n      0x00\n      swap1\n      sload\n      swap1\n      0x0100\n      exp\n      swap1\n      div\n      0xffffffffffffffffffffffffffffffffffffffff\n      and\n      0xffffffffffffffffffffffffffffffffffffffff\n      and\n      0xffffffffffffffffffffffffffffffffffffffff\n      and\n      dup2\n      mstore\n      0x20\n      add\n      0x02\n      dup3\n      add\n      sload\n      dup2\n      mstore\n      0x20\n      add\n      0x03\n      dup3\n      add\n      sload\n      dup2\n      mstore\n      0x20\n      add\n      0x04\n      dup3\n      add\n      sload\n      dup2\n      mstore\n      pop\n      pop\n      dup2\n      mstore\n      0x20\n      add\n      swap1\n      0x01\n      add\n      swap1\n      jump(tag_61)\n    tag_62:\n      pop\n      pop\n      pop\n      pop\n      swap1\n      pop\n        /* \"contracts/DGameApp.sol\":1053:1159  function getAllBet(address _owner) public view returns (Bet[] memory ){... */\n      swap2\n      swap1\n      pop\n      jump\t// out\n        /* \"contracts/DGameApp.sol\":1163:1259  function getAllPlayers() public view returns (Bet[] memory){... */\n    tag_36:\n        /* \"contracts/DGameApp.sol\":1209:1221  Bet[] memory */\n      0x60\n        /* \"contracts/DGameApp.sol\":1237:1241  bets */\n      0x00\n        /* \"contracts/DGameApp.sol\":1237:1253  bets[msg.sender] */\n      dup1\n        /* \"contracts/DGameApp.sol\":1242:1252  msg.sender */\n      caller\n        /* \"contracts/DGameApp.sol\":1237:1253  bets[msg.sender] */\n      0xffffffffffffffffffffffffffffffffffffffff\n      and\n      0xffffffffffffffffffffffffffffffffffffffff\n      and\n      dup2\n      mstore\n      0x20\n      add\n      swap1\n      dup2\n      mstore\n      0x20\n      add\n      0x00\n      keccak256\n        /* \"contracts/DGameApp.sol\":1230:1253  return bets[msg.sender] */\n      dup1\n      sload\n      dup1\n      0x20\n      mul\n      0x20\n      add\n      mload(0x40)\n      swap1\n      dup2\n      add\n      0x40\n      mstore\n      dup1\n      swap3\n      swap2\n      swap1\n      dup2\n      dup2\n      mstore\n      0x20\n      add\n      0x00\n      swap1\n    tag_65:\n      dup3\n      dup3\n      lt\n      iszero\n      tag_66\n      jumpi\n      dup4\n      dup3\n      swap1\n      0x00\n      mstore\n      keccak256(0x00, 0x20)\n      swap1\n      0x05\n      mul\n      add\n      mload(0x40)\n      dup1\n      0xa0\n      add\n      0x40\n      mstore\n      swap1\n      dup2\n      0x00\n      dup3\n      add\n      sload\n      dup2\n      mstore\n      0x20\n      add\n      0x01\n      dup3\n      add\n      0x00\n      swap1\n      sload\n      swap1\n      0x0100\n      exp\n      swap1\n      div\n      0xffffffffffffffffffffffffffffffffffffffff\n      and\n      0xffffffffffffffffffffffffffffffffffffffff\n      and\n      0xffffffffffffffffffffffffffffffffffffffff\n      and\n      dup2\n      mstore\n      0x20\n      add\n      0x02\n      dup3\n      add\n      sload\n      dup2\n      mstore\n      0x20\n      add\n      0x03\n      dup3\n      add\n      sload\n      dup2\n      mstore\n      0x20\n      add\n      0x04\n      dup3\n      add\n      sload\n      dup2\n      mstore\n      pop\n      pop\n      dup2\n      mstore\n      0x20\n      add\n      swap1\n      0x01\n      add\n      swap1\n      jump(tag_65)\n    tag_66:\n      pop\n      pop\n      pop\n      pop\n      swap1\n      pop\n        /* \"contracts/DGameApp.sol\":1163:1259  function getAllPlayers() public view returns (Bet[] memory){... */\n      swap1\n      jump\t// out\n    tag_39:\n      mload(0x40)\n      dup1\n      0xa0\n      add\n      0x40\n      mstore\n      dup1\n      0x00\n      dup2\n      mstore\n      0x20\n      add\n      and(0xffffffffffffffffffffffffffffffffffffffff, 0x00)\n      dup2\n      mstore\n      0x20\n      add\n      0x00\n      dup2\n      mstore\n      0x20\n      add\n      0x00\n      dup2\n      mstore\n      0x20\n      add\n      0x00\n      dup2\n      mstore\n      pop\n      swap1\n      jump\t// out\n        /* \"#utility.yul\":88:205   */\n    tag_69:\n        /* \"#utility.yul\":197:198   */\n      0x00\n        /* \"#utility.yul\":194:195   */\n      dup1\n        /* \"#utility.yul\":187:199   */\n      revert\n        /* \"#utility.yul\":334:411   */\n    tag_71:\n        /* \"#utility.yul\":371:378   */\n      0x00\n        /* \"#utility.yul\":400:405   */\n      dup2\n        /* \"#utility.yul\":389:405   */\n      swap1\n      pop\n        /* \"#utility.yul\":334:411   */\n      swap2\n      swap1\n      pop\n      jump\t// out\n        /* \"#utility.yul\":417:539   */\n    tag_72:\n        /* \"#utility.yul\":490:514   */\n      tag_104\n        /* \"#utility.yul\":508:513   */\n      dup2\n        /* \"#utility.yul\":490:514   */\n      tag_71\n      jump\t// in\n    tag_104:\n        /* \"#utility.yul\":483:488   */\n      dup2\n        /* \"#utility.yul\":480:515   */\n      eq\n        /* \"#utility.yul\":470:533   */\n      tag_105\n      jumpi\n        /* \"#utility.yul\":529:530   */\n      0x00\n        /* \"#utility.yul\":526:527   */\n      dup1\n        /* \"#utility.yul\":519:531   */\n      revert\n        /* \"#utility.yul\":470:533   */\n    tag_105:\n        /* \"#utility.yul\":417:539   */\n      pop\n      jump\t// out\n        /* \"#utility.yul\":545:684   */\n    tag_73:\n        /* \"#utility.yul\":591:596   */\n      0x00\n        /* \"#utility.yul\":629:635   */\n      dup2\n        /* \"#utility.yul\":616:636   */\n      calldataload\n        /* \"#utility.yul\":607:636   */\n      swap1\n      pop\n        /* \"#utility.yul\":645:678   */\n      tag_107\n        /* \"#utility.yul\":672:677   */\n      dup2\n        /* \"#utility.yul\":645:678   */\n      tag_72\n      jump\t// in\n    tag_107:\n        /* \"#utility.yul\":545:684   */\n      swap3\n      swap2\n      pop\n      pop\n      jump\t// out\n        /* \"#utility.yul\":690:1019   */\n    tag_11:\n        /* \"#utility.yul\":749:755   */\n      0x00\n        /* \"#utility.yul\":798:800   */\n      0x20\n        /* \"#utility.yul\":786:795   */\n      dup3\n        /* \"#utility.yul\":777:784   */\n      dup5\n        /* \"#utility.yul\":773:796   */\n      sub\n        /* \"#utility.yul\":769:801   */\n      slt\n        /* \"#utility.yul\":766:885   */\n      iszero\n      tag_109\n      jumpi\n        /* \"#utility.yul\":804:883   */\n      tag_110\n      tag_69\n      jump\t// in\n    tag_110:\n        /* \"#utility.yul\":766:885   */\n    tag_109:\n        /* \"#utility.yul\":924:925   */\n      0x00\n        /* \"#utility.yul\":949:1002   */\n      tag_111\n        /* \"#utility.yul\":994:1001   */\n      dup5\n        /* \"#utility.yul\":985:991   */\n      dup3\n        /* \"#utility.yul\":974:983   */\n      dup6\n        /* \"#utility.yul\":970:992   */\n      add\n        /* \"#utility.yul\":949:1002   */\n      tag_73\n      jump\t// in\n    tag_111:\n        /* \"#utility.yul\":939:1002   */\n      swap2\n      pop\n        /* \"#utility.yul\":895:1012   */\n      pop\n        /* \"#utility.yul\":690:1019   */\n      swap3\n      swap2\n      pop\n      pop\n      jump\t// out\n        /* \"#utility.yul\":1025:1133   */\n    tag_74:\n        /* \"#utility.yul\":1102:1126   */\n      tag_113\n        /* \"#utility.yul\":1120:1125   */\n      dup2\n        /* \"#utility.yul\":1102:1126   */\n      tag_71\n      jump\t// in\n    tag_113:\n        /* \"#utility.yul\":1097:1100   */\n      dup3\n        /* \"#utility.yul\":1090:1127   */\n      mstore\n        /* \"#utility.yul\":1025:1133   */\n      pop\n      pop\n      jump\t// out\n        /* \"#utility.yul\":1139:1265   */\n    tag_75:\n        /* \"#utility.yul\":1176:1183   */\n      0x00\n        /* \"#utility.yul\":1216:1258   */\n      0xffffffffffffffffffffffffffffffffffffffff\n        /* \"#utility.yul\":1209:1214   */\n      dup3\n        /* \"#utility.yul\":1205:1259   */\n      and\n        /* \"#utility.yul\":1194:1259   */\n      swap1\n      pop\n        /* \"#utility.yul\":1139:1265   */\n      swap2\n      swap1\n      pop\n      jump\t// out\n        /* \"#utility.yul\":1271:1367   */\n    tag_76:\n        /* \"#utility.yul\":1308:1315   */\n      0x00\n        /* \"#utility.yul\":1337:1361   */\n      tag_116\n        /* \"#utility.yul\":1355:1360   */\n      dup3\n        /* \"#utility.yul\":1337:1361   */\n      tag_75\n      jump\t// in\n    tag_116:\n        /* \"#utility.yul\":1326:1361   */\n      swap1\n      pop\n        /* \"#utility.yul\":1271:1367   */\n      swap2\n      swap1\n      pop\n      jump\t// out\n        /* \"#utility.yul\":1373:1481   */\n    tag_77:\n        /* \"#utility.yul\":1450:1474   */\n      tag_118\n        /* \"#utility.yul\":1468:1473   */\n      dup2\n        /* \"#utility.yul\":1450:1474   */\n      tag_76\n      jump\t// in\n    tag_118:\n        /* \"#utility.yul\":1445:1448   */\n      dup3\n        /* \"#utility.yul\":1438:1475   */\n      mstore\n        /* \"#utility.yul\":1373:1481   */\n      pop\n      pop\n      jump\t// out\n        /* \"#utility.yul\":1537:2563   */\n    tag_78:\n        /* \"#utility.yul\":1672:1676   */\n      0xa0\n        /* \"#utility.yul\":1667:1670   */\n      dup3\n        /* \"#utility.yul\":1663:1677   */\n      add\n        /* \"#utility.yul\":1757:1761   */\n      0x00\n        /* \"#utility.yul\":1750:1755   */\n      dup3\n        /* \"#utility.yul\":1746:1762   */\n      add\n        /* \"#utility.yul\":1740:1763   */\n      mload\n        /* \"#utility.yul\":1776:1839   */\n      tag_120\n        /* \"#utility.yul\":1833:1837   */\n      0x00\n        /* \"#utility.yul\":1828:1831   */\n      dup6\n        /* \"#utility.yul\":1824:1838   */\n      add\n        /* \"#utility.yul\":1810:1822   */\n      dup3\n        /* \"#utility.yul\":1776:1839   */\n      tag_74\n      jump\t// in\n    tag_120:\n        /* \"#utility.yul\":1687:1849   */\n      pop\n        /* \"#utility.yul\":1932:1936   */\n      0x20\n        /* \"#utility.yul\":1925:1930   */\n      dup3\n        /* \"#utility.yul\":1921:1937   */\n      add\n        /* \"#utility.yul\":1915:1938   */\n      mload\n        /* \"#utility.yul\":1951:2014   */\n      tag_121\n        /* \"#utility.yul\":2008:2012   */\n      0x20\n        /* \"#utility.yul\":2003:2006   */\n      dup6\n        /* \"#utility.yul\":1999:2013   */\n      add\n        /* \"#utility.yul\":1985:1997   */\n      dup3\n        /* \"#utility.yul\":1951:2014   */\n      tag_77\n      jump\t// in\n    tag_121:\n        /* \"#utility.yul\":1859:2024   */\n      pop\n        /* \"#utility.yul\":2108:2112   */\n      0x40\n        /* \"#utility.yul\":2101:2106   */\n      dup3\n        /* \"#utility.yul\":2097:2113   */\n      add\n        /* \"#utility.yul\":2091:2114   */\n      mload\n        /* \"#utility.yul\":2127:2190   */\n      tag_122\n        /* \"#utility.yul\":2184:2188   */\n      0x40\n        /* \"#utility.yul\":2179:2182   */\n      dup6\n        /* \"#utility.yul\":2175:2189   */\n      add\n        /* \"#utility.yul\":2161:2173   */\n      dup3\n        /* \"#utility.yul\":2127:2190   */\n      tag_74\n      jump\t// in\n    tag_122:\n        /* \"#utility.yul\":2034:2200   */\n      pop\n        /* \"#utility.yul\":2286:2290   */\n      0x60\n        /* \"#utility.yul\":2279:2284   */\n      dup3\n        /* \"#utility.yul\":2275:2291   */\n      add\n        /* \"#utility.yul\":2269:2292   */\n      mload\n        /* \"#utility.yul\":2305:2368   */\n      tag_123\n        /* \"#utility.yul\":2362:2366   */\n      0x60\n        /* \"#utility.yul\":2357:2360   */\n      dup6\n        /* \"#utility.yul\":2353:2367   */\n      add\n        /* \"#utility.yul\":2339:2351   */\n      dup3\n        /* \"#utility.yul\":2305:2368   */\n      tag_74\n      jump\t// in\n    tag_123:\n        /* \"#utility.yul\":2210:2378   */\n      pop\n        /* \"#utility.yul\":2464:2468   */\n      0x80\n        /* \"#utility.yul\":2457:2462   */\n      dup3\n        /* \"#utility.yul\":2453:2469   */\n      add\n        /* \"#utility.yul\":2447:2470   */\n      mload\n        /* \"#utility.yul\":2483:2546   */\n      tag_124\n        /* \"#utility.yul\":2540:2544   */\n      0x80\n        /* \"#utility.yul\":2535:2538   */\n      dup6\n        /* \"#utility.yul\":2531:2545   */\n      add\n        /* \"#utility.yul\":2517:2529   */\n      dup3\n        /* \"#utility.yul\":2483:2546   */\n      tag_74\n      jump\t// in\n    tag_124:\n        /* \"#utility.yul\":2388:2556   */\n      pop\n        /* \"#utility.yul\":1641:2563   */\n      pop\n        /* \"#utility.yul\":1537:2563   */\n      pop\n      pop\n      jump\t// out\n        /* \"#utility.yul\":2569:2868   */\n    tag_14:\n        /* \"#utility.yul\":2700:2704   */\n      0x00\n        /* \"#utility.yul\":2738:2741   */\n      0xa0\n        /* \"#utility.yul\":2727:2736   */\n      dup3\n        /* \"#utility.yul\":2723:2742   */\n      add\n        /* \"#utility.yul\":2715:2742   */\n      swap1\n      pop\n        /* \"#utility.yul\":2752:2861   */\n      tag_126\n        /* \"#utility.yul\":2858:2859   */\n      0x00\n        /* \"#utility.yul\":2847:2856   */\n      dup4\n        /* \"#utility.yul\":2843:2860   */\n      add\n        /* \"#utility.yul\":2834:2840   */\n      dup5\n        /* \"#utility.yul\":2752:2861   */\n      tag_78\n      jump\t// in\n    tag_126:\n        /* \"#utility.yul\":2569:2868   */\n      swap3\n      swap2\n      pop\n      pop\n      jump\t// out\n        /* \"#utility.yul\":2874:2992   */\n    tag_79:\n        /* \"#utility.yul\":2961:2985   */\n      tag_128\n        /* \"#utility.yul\":2979:2984   */\n      dup2\n        /* \"#utility.yul\":2961:2985   */\n      tag_71\n      jump\t// in\n    tag_128:\n        /* \"#utility.yul\":2956:2959   */\n      dup3\n        /* \"#utility.yul\":2949:2986   */\n      mstore\n        /* \"#utility.yul\":2874:2992   */\n      pop\n      pop\n      jump\t// out\n        /* \"#utility.yul\":2998:3220   */\n    tag_18:\n        /* \"#utility.yul\":3091:3095   */\n      0x00\n        /* \"#utility.yul\":3129:3131   */\n      0x20\n        /* \"#utility.yul\":3118:3127   */\n      dup3\n        /* \"#utility.yul\":3114:3132   */\n      add\n        /* \"#utility.yul\":3106:3132   */\n      swap1\n      pop\n        /* \"#utility.yul\":3142:3213   */\n      tag_130\n        /* \"#utility.yul\":3210:3211   */\n      0x00\n        /* \"#utility.yul\":3199:3208   */\n      dup4\n        /* \"#utility.yul\":3195:3212   */\n      add\n        /* \"#utility.yul\":3186:3192   */\n      dup5\n        /* \"#utility.yul\":3142:3213   */\n      tag_79\n      jump\t// in\n    tag_130:\n        /* \"#utility.yul\":2998:3220   */\n      swap3\n      swap2\n      pop\n      pop\n      jump\t// out\n        /* \"#utility.yul\":3226:3348   */\n    tag_80:\n        /* \"#utility.yul\":3299:3323   */\n      tag_132\n        /* \"#utility.yul\":3317:3322   */\n      dup2\n        /* \"#utility.yul\":3299:3323   */\n      tag_76\n      jump\t// in\n    tag_132:\n        /* \"#utility.yul\":3292:3297   */\n      dup2\n        /* \"#utility.yul\":3289:3324   */\n      eq\n        /* \"#utility.yul\":3279:3342   */\n      tag_133\n      jumpi\n        /* \"#utility.yul\":3338:3339   */\n      0x00\n        /* \"#utility.yul\":3335:3336   */\n      dup1\n        /* \"#utility.yul\":3328:3340   */\n      revert\n        /* \"#utility.yul\":3279:3342   */\n    tag_133:\n        /* \"#utility.yul\":3226:3348   */\n      pop\n      jump\t// out\n        /* \"#utility.yul\":3354:3493   */\n    tag_81:\n        /* \"#utility.yul\":3400:3405   */\n      0x00\n        /* \"#utility.yul\":3438:3444   */\n      dup2\n        /* \"#utility.yul\":3425:3445   */\n      calldataload\n        /* \"#utility.yul\":3416:3445   */\n      swap1\n      pop\n        /* \"#utility.yul\":3454:3487   */\n      tag_135\n        /* \"#utility.yul\":3481:3486   */\n      dup2\n        /* \"#utility.yul\":3454:3487   */\n      tag_80\n      jump\t// in\n    tag_135:\n        /* \"#utility.yul\":3354:3493   */\n      swap3\n      swap2\n      pop\n      pop\n      jump\t// out\n        /* \"#utility.yul\":3499:3973   */\n    tag_21:\n        /* \"#utility.yul\":3567:3573   */\n      0x00\n        /* \"#utility.yul\":3575:3581   */\n      dup1\n        /* \"#utility.yul\":3624:3626   */\n      0x40\n        /* \"#utility.yul\":3612:3621   */\n      dup4\n        /* \"#utility.yul\":3603:3610   */\n      dup6\n        /* \"#utility.yul\":3599:3622   */\n      sub\n        /* \"#utility.yul\":3595:3627   */\n      slt\n        /* \"#utility.yul\":3592:3711   */\n      iszero\n      tag_137\n      jumpi\n        /* \"#utility.yul\":3630:3709   */\n      tag_138\n      tag_69\n      jump\t// in\n    tag_138:\n        /* \"#utility.yul\":3592:3711   */\n    tag_137:\n        /* \"#utility.yul\":3750:3751   */\n      0x00\n        /* \"#utility.yul\":3775:3828   */\n      tag_139\n        /* \"#utility.yul\":3820:3827   */\n      dup6\n        /* \"#utility.yul\":3811:3817   */\n      dup3\n        /* \"#utility.yul\":3800:3809   */\n      dup7\n        /* \"#utility.yul\":3796:3818   */\n      add\n        /* \"#utility.yul\":3775:3828   */\n      tag_81\n      jump\t// in\n    tag_139:\n        /* \"#utility.yul\":3765:3828   */\n      swap3\n      pop\n        /* \"#utility.yul\":3721:3838   */\n      pop\n        /* \"#utility.yul\":3877:3879   */\n      0x20\n        /* \"#utility.yul\":3903:3956   */\n      tag_140\n        /* \"#utility.yul\":3948:3955   */\n      dup6\n        /* \"#utility.yul\":3939:3945   */\n      dup3\n        /* \"#utility.yul\":3928:3937   */\n      dup7\n        /* \"#utility.yul\":3924:3946   */\n      add\n        /* \"#utility.yul\":3903:3956   */\n      tag_73\n      jump\t// in\n    tag_140:\n        /* \"#utility.yul\":3893:3956   */\n      swap2\n      pop\n        /* \"#utility.yul\":3848:3966   */\n      pop\n        /* \"#utility.yul\":3499:3973   */\n      swap3\n      pop\n      swap3\n      swap1\n      pop\n      jump\t// out\n        /* \"#utility.yul\":3979:4097   */\n    tag_82:\n        /* \"#utility.yul\":4066:4090   */\n      tag_142\n        /* \"#utility.yul\":4084:4089   */\n      dup2\n        /* \"#utility.yul\":4066:4090   */\n      tag_76\n      jump\t// in\n    tag_142:\n        /* \"#utility.yul\":4061:4064   */\n      dup3\n        /* \"#utility.yul\":4054:4091   */\n      mstore\n        /* \"#utility.yul\":3979:4097   */\n      pop\n      pop\n      jump\t// out\n        /* \"#utility.yul\":4103:4767   */\n    tag_24:\n        /* \"#utility.yul\":4308:4312   */\n      0x00\n        /* \"#utility.yul\":4346:4349   */\n      0xa0\n        /* \"#utility.yul\":4335:4344   */\n      dup3\n        /* \"#utility.yul\":4331:4350   */\n      add\n        /* \"#utility.yul\":4323:4350   */\n      swap1\n      pop\n        /* \"#utility.yul\":4360:4431   */\n      tag_144\n        /* \"#utility.yul\":4428:4429   */\n      0x00\n        /* \"#utility.yul\":4417:4426   */\n      dup4\n        /* \"#utility.yul\":4413:4430   */\n      add\n        /* \"#utility.yul\":4404:4410   */\n      dup9\n        /* \"#utility.yul\":4360:4431   */\n      tag_79\n      jump\t// in\n    tag_144:\n        /* \"#utility.yul\":4441:4513   */\n      tag_145\n        /* \"#utility.yul\":4509:4511   */\n      0x20\n        /* \"#utility.yul\":4498:4507   */\n      dup4\n        /* \"#utility.yul\":4494:4512   */\n      add\n        /* \"#utility.yul\":4485:4491   */\n      dup8\n        /* \"#utility.yul\":4441:4513   */\n      tag_82\n      jump\t// in\n    tag_145:\n        /* \"#utility.yul\":4523:4595   */\n      tag_146\n        /* \"#utility.yul\":4591:4593   */\n      0x40\n        /* \"#utility.yul\":4580:4589   */\n      dup4\n        /* \"#utility.yul\":4576:4594   */\n      add\n        /* \"#utility.yul\":4567:4573   */\n      dup7\n        /* \"#utility.yul\":4523:4595   */\n      tag_79\n      jump\t// in\n    tag_146:\n        /* \"#utility.yul\":4605:4677   */\n      tag_147\n        /* \"#utility.yul\":4673:4675   */\n      0x60\n        /* \"#utility.yul\":4662:4671   */\n      dup4\n        /* \"#utility.yul\":4658:4676   */\n      add\n        /* \"#utility.yul\":4649:4655   */\n      dup6\n        /* \"#utility.yul\":4605:4677   */\n      tag_79\n      jump\t// in\n    tag_147:\n        /* \"#utility.yul\":4687:4760   */\n      tag_148\n        /* \"#utility.yul\":4755:4758   */\n      0x80\n        /* \"#utility.yul\":4744:4753   */\n      dup4\n        /* \"#utility.yul\":4740:4759   */\n      add\n        /* \"#utility.yul\":4731:4737   */\n      dup5\n        /* \"#utility.yul\":4687:4760   */\n      tag_79\n      jump\t// in\n    tag_148:\n        /* \"#utility.yul\":4103:4767   */\n      swap7\n      swap6\n      pop\n      pop\n      pop\n      pop\n      pop\n      pop\n      jump\t// out\n        /* \"#utility.yul\":4773:5247   */\n    tag_27:\n        /* \"#utility.yul\":4841:4847   */\n      0x00\n        /* \"#utility.yul\":4849:4855   */\n      dup1\n        /* \"#utility.yul\":4898:4900   */\n      0x40\n        /* \"#utility.yul\":4886:4895   */\n      dup4\n        /* \"#utility.yul\":4877:4884   */\n      dup6\n        /* \"#utility.yul\":4873:4896   */\n      sub\n        /* \"#utility.yul\":4869:4901   */\n      slt\n        /* \"#utility.yul\":4866:4985   */\n      iszero\n      tag_150\n      jumpi\n        /* \"#utility.yul\":4904:4983   */\n      tag_151\n      tag_69\n      jump\t// in\n    tag_151:\n        /* \"#utility.yul\":4866:4985   */\n    tag_150:\n        /* \"#utility.yul\":5024:5025   */\n      0x00\n        /* \"#utility.yul\":5049:5102   */\n      tag_152\n        /* \"#utility.yul\":5094:5101   */\n      dup6\n        /* \"#utility.yul\":5085:5091   */\n      dup3\n        /* \"#utility.yul\":5074:5083   */\n      dup7\n        /* \"#utility.yul\":5070:5092   */\n      add\n        /* \"#utility.yul\":5049:5102   */\n      tag_73\n      jump\t// in\n    tag_152:\n        /* \"#utility.yul\":5039:5102   */\n      swap3\n      pop\n        /* \"#utility.yul\":4995:5112   */\n      pop\n        /* \"#utility.yul\":5151:5153   */\n      0x20\n        /* \"#utility.yul\":5177:5230   */\n      tag_153\n        /* \"#utility.yul\":5222:5229   */\n      dup6\n        /* \"#utility.yul\":5213:5219   */\n      dup3\n        /* \"#utility.yul\":5202:5211   */\n      dup7\n        /* \"#utility.yul\":5198:5220   */\n      add\n        /* \"#utility.yul\":5177:5230   */\n      tag_73\n      jump\t// in\n    tag_153:\n        /* \"#utility.yul\":5167:5230   */\n      swap2\n      pop\n        /* \"#utility.yul\":5122:5240   */\n      pop\n        /* \"#utility.yul\":4773:5247   */\n      swap3\n      pop\n      swap3\n      swap1\n      pop\n      jump\t// out\n        /* \"#utility.yul\":5253:5582   */\n    tag_31:\n        /* \"#utility.yul\":5312:5318   */\n      0x00\n        /* \"#utility.yul\":5361:5363   */\n      0x20\n        /* \"#utility.yul\":5349:5358   */\n      dup3\n        /* \"#utility.yul\":5340:5347   */\n      dup5\n        /* \"#utility.yul\":5336:5359   */\n      sub\n        /* \"#utility.yul\":5332:5364   */\n      slt\n        /* \"#utility.yul\":5329:5448   */\n      iszero\n      tag_155\n      jumpi\n        /* \"#utility.yul\":5367:5446   */\n      tag_156\n      tag_69\n      jump\t// in\n    tag_156:\n        /* \"#utility.yul\":5329:5448   */\n    tag_155:\n        /* \"#utility.yul\":5487:5488   */\n      0x00\n        /* \"#utility.yul\":5512:5565   */\n      tag_157\n        /* \"#utility.yul\":5557:5564   */\n      dup5\n        /* \"#utility.yul\":5548:5554   */\n      dup3\n        /* \"#utility.yul\":5537:5546   */\n      dup6\n        /* \"#utility.yul\":5533:5555   */\n      add\n        /* \"#utility.yul\":5512:5565   */\n      tag_81\n      jump\t// in\n    tag_157:\n        /* \"#utility.yul\":5502:5565   */\n      swap2\n      pop\n        /* \"#utility.yul\":5458:5575   */\n      pop\n        /* \"#utility.yul\":5253:5582   */\n      swap3\n      swap2\n      pop\n      pop\n      jump\t// out\n        /* \"#utility.yul\":5588:5721   */\n    tag_83:\n        /* \"#utility.yul\":5674:5680   */\n      0x00\n        /* \"#utility.yul\":5708:5713   */\n      dup2\n        /* \"#utility.yul\":5702:5714   */\n      mload\n        /* \"#utility.yul\":5692:5714   */\n      swap1\n      pop\n        /* \"#utility.yul\":5588:5721   */\n      swap2\n      swap1\n      pop\n      jump\t// out\n        /* \"#utility.yul\":5727:5930   */\n    tag_84:\n        /* \"#utility.yul\":5845:5856   */\n      0x00\n        /* \"#utility.yul\":5879:5885   */\n      dup3\n        /* \"#utility.yul\":5874:5877   */\n      dup3\n        /* \"#utility.yul\":5867:5886   */\n      mstore\n        /* \"#utility.yul\":5919:5923   */\n      0x20\n        /* \"#utility.yul\":5914:5917   */\n      dup3\n        /* \"#utility.yul\":5910:5924   */\n      add\n        /* \"#utility.yul\":5895:5924   */\n      swap1\n      pop\n        /* \"#utility.yul\":5727:5930   */\n      swap3\n      swap2\n      pop\n      pop\n      jump\t// out\n        /* \"#utility.yul\":5936:6087   */\n    tag_85:\n        /* \"#utility.yul\":6022:6026   */\n      0x00\n        /* \"#utility.yul\":6045:6048   */\n      dup2\n        /* \"#utility.yul\":6037:6048   */\n      swap1\n      pop\n        /* \"#utility.yul\":6075:6079   */\n      0x20\n        /* \"#utility.yul\":6070:6073   */\n      dup3\n        /* \"#utility.yul\":6066:6080   */\n      add\n        /* \"#utility.yul\":6058:6080   */\n      swap1\n      pop\n        /* \"#utility.yul\":5936:6087   */\n      swap2\n      swap1\n      pop\n      jump\t// out\n        /* \"#utility.yul\":6143:7159   */\n    tag_86:\n        /* \"#utility.yul\":6268:6272   */\n      0xa0\n        /* \"#utility.yul\":6263:6266   */\n      dup3\n        /* \"#utility.yul\":6259:6273   */\n      add\n        /* \"#utility.yul\":6353:6357   */\n      0x00\n        /* \"#utility.yul\":6346:6351   */\n      dup3\n        /* \"#utility.yul\":6342:6358   */\n      add\n        /* \"#utility.yul\":6336:6359   */\n      mload\n        /* \"#utility.yul\":6372:6435   */\n      tag_162\n        /* \"#utility.yul\":6429:6433   */\n      0x00\n        /* \"#utility.yul\":6424:6427   */\n      dup6\n        /* \"#utility.yul\":6420:6434   */\n      add\n        /* \"#utility.yul\":6406:6418   */\n      dup3\n        /* \"#utility.yul\":6372:6435   */\n      tag_74\n      jump\t// in\n    tag_162:\n        /* \"#utility.yul\":6283:6445   */\n      pop\n        /* \"#utility.yul\":6528:6532   */\n      0x20\n        /* \"#utility.yul\":6521:6526   */\n      dup3\n        /* \"#utility.yul\":6517:6533   */\n      add\n        /* \"#utility.yul\":6511:6534   */\n      mload\n        /* \"#utility.yul\":6547:6610   */\n      tag_163\n        /* \"#utility.yul\":6604:6608   */\n      0x20\n        /* \"#utility.yul\":6599:6602   */\n      dup6\n        /* \"#utility.yul\":6595:6609   */\n      add\n        /* \"#utility.yul\":6581:6593   */\n      dup3\n        /* \"#utility.yul\":6547:6610   */\n      tag_77\n      jump\t// in\n    tag_163:\n        /* \"#utility.yul\":6455:6620   */\n      pop\n        /* \"#utility.yul\":6704:6708   */\n      0x40\n        /* \"#utility.yul\":6697:6702   */\n      dup3\n        /* \"#utility.yul\":6693:6709   */\n      add\n        /* \"#utility.yul\":6687:6710   */\n      mload\n        /* \"#utility.yul\":6723:6786   */\n      tag_164\n        /* \"#utility.yul\":6780:6784   */\n      0x40\n        /* \"#utility.yul\":6775:6778   */\n      dup6\n        /* \"#utility.yul\":6771:6785   */\n      add\n        /* \"#utility.yul\":6757:6769   */\n      dup3\n        /* \"#utility.yul\":6723:6786   */\n      tag_74\n      jump\t// in\n    tag_164:\n        /* \"#utility.yul\":6630:6796   */\n      pop\n        /* \"#utility.yul\":6882:6886   */\n      0x60\n        /* \"#utility.yul\":6875:6880   */\n      dup3\n        /* \"#utility.yul\":6871:6887   */\n      add\n        /* \"#utility.yul\":6865:6888   */\n      mload\n        /* \"#utility.yul\":6901:6964   */\n      tag_165\n        /* \"#utility.yul\":6958:6962   */\n      0x60\n        /* \"#utility.yul\":6953:6956   */\n      dup6\n        /* \"#utility.yul\":6949:6963   */\n      add\n        /* \"#utility.yul\":6935:6947   */\n      dup3\n        /* \"#utility.yul\":6901:6964   */\n      tag_74\n      jump\t// in\n    tag_165:\n        /* \"#utility.yul\":6806:6974   */\n      pop\n        /* \"#utility.yul\":7060:7064   */\n      0x80\n        /* \"#utility.yul\":7053:7058   */\n      dup3\n        /* \"#utility.yul\":7049:7065   */\n      add\n        /* \"#utility.yul\":7043:7066   */\n      mload\n        /* \"#utility.yul\":7079:7142   */\n      tag_166\n        /* \"#utility.yul\":7136:7140   */\n      0x80\n        /* \"#utility.yul\":7131:7134   */\n      dup6\n        /* \"#utility.yul\":7127:7141   */\n      add\n        /* \"#utility.yul\":7113:7125   */\n      dup3\n        /* \"#utility.yul\":7079:7142   */\n      tag_74\n      jump\t// in\n    tag_166:\n        /* \"#utility.yul\":6984:7152   */\n      pop\n        /* \"#utility.yul\":6237:7159   */\n      pop\n        /* \"#utility.yul\":6143:7159   */\n      pop\n      pop\n      jump\t// out\n        /* \"#utility.yul\":7165:7420   */\n    tag_87:\n        /* \"#utility.yul\":7272:7282   */\n      0x00\n        /* \"#utility.yul\":7293:7377   */\n      tag_168\n        /* \"#utility.yul\":7373:7376   */\n      dup4\n        /* \"#utility.yul\":7365:7371   */\n      dup4\n        /* \"#utility.yul\":7293:7377   */\n      tag_86\n      jump\t// in\n    tag_168:\n        /* \"#utility.yul\":7409:7413   */\n      0xa0\n        /* \"#utility.yul\":7404:7407   */\n      dup4\n        /* \"#utility.yul\":7400:7414   */\n      add\n        /* \"#utility.yul\":7386:7414   */\n      swap1\n      pop\n        /* \"#utility.yul\":7165:7420   */\n      swap3\n      swap2\n      pop\n      pop\n      jump\t// out\n        /* \"#utility.yul\":7426:7558   */\n    tag_88:\n        /* \"#utility.yul\":7515:7519   */\n      0x00\n        /* \"#utility.yul\":7547:7551   */\n      0x20\n        /* \"#utility.yul\":7542:7545   */\n      dup3\n        /* \"#utility.yul\":7538:7552   */\n      add\n        /* \"#utility.yul\":7530:7552   */\n      swap1\n      pop\n        /* \"#utility.yul\":7426:7558   */\n      swap2\n      swap1\n      pop\n      jump\t// out\n        /* \"#utility.yul\":7618:8502   */\n    tag_89:\n        /* \"#utility.yul\":7775:7778   */\n      0x00\n        /* \"#utility.yul\":7804:7877   */\n      tag_171\n        /* \"#utility.yul\":7871:7876   */\n      dup3\n        /* \"#utility.yul\":7804:7877   */\n      tag_83\n      jump\t// in\n    tag_171:\n        /* \"#utility.yul\":7893:7998   */\n      tag_172\n        /* \"#utility.yul\":7991:7997   */\n      dup2\n        /* \"#utility.yul\":7986:7989   */\n      dup6\n        /* \"#utility.yul\":7893:7998   */\n      tag_84\n      jump\t// in\n    tag_172:\n        /* \"#utility.yul\":7886:7998   */\n      swap4\n      pop\n        /* \"#utility.yul\":8022:8097   */\n      tag_173\n        /* \"#utility.yul\":8091:8096   */\n      dup4\n        /* \"#utility.yul\":8022:8097   */\n      tag_85\n      jump\t// in\n    tag_173:\n        /* \"#utility.yul\":8120:8127   */\n      dup1\n        /* \"#utility.yul\":8151:8152   */\n      0x00\n        /* \"#utility.yul\":8136:8477   */\n    tag_174:\n        /* \"#utility.yul\":8161:8167   */\n      dup4\n        /* \"#utility.yul\":8158:8159   */\n      dup2\n        /* \"#utility.yul\":8155:8168   */\n      lt\n        /* \"#utility.yul\":8136:8477   */\n      iszero\n      tag_176\n      jumpi\n        /* \"#utility.yul\":8237:8243   */\n      dup2\n        /* \"#utility.yul\":8231:8244   */\n      mload\n        /* \"#utility.yul\":8264:8365   */\n      tag_177\n        /* \"#utility.yul\":8361:8364   */\n      dup9\n        /* \"#utility.yul\":8346:8359   */\n      dup3\n        /* \"#utility.yul\":8264:8365   */\n      tag_87\n      jump\t// in\n    tag_177:\n        /* \"#utility.yul\":8257:8365   */\n      swap8\n      pop\n        /* \"#utility.yul\":8388:8467   */\n      tag_178\n        /* \"#utility.yul\":8460:8466   */\n      dup4\n        /* \"#utility.yul\":8388:8467   */\n      tag_88\n      jump\t// in\n    tag_178:\n        /* \"#utility.yul\":8378:8467   */\n      swap3\n      pop\n        /* \"#utility.yul\":8196:8477   */\n      pop\n        /* \"#utility.yul\":8183:8184   */\n      0x01\n        /* \"#utility.yul\":8180:8181   */\n      dup2\n        /* \"#utility.yul\":8176:8185   */\n      add\n        /* \"#utility.yul\":8171:8185   */\n      swap1\n      pop\n        /* \"#utility.yul\":8136:8477   */\n      jump(tag_174)\n    tag_176:\n        /* \"#utility.yul\":8140:8154   */\n      pop\n        /* \"#utility.yul\":8493:8496   */\n      dup6\n        /* \"#utility.yul\":8486:8496   */\n      swap4\n      pop\n        /* \"#utility.yul\":7780:8502   */\n      pop\n      pop\n      pop\n        /* \"#utility.yul\":7618:8502   */\n      swap3\n      swap2\n      pop\n      pop\n      jump\t// out\n        /* \"#utility.yul\":8508:8957   */\n    tag_34:\n        /* \"#utility.yul\":8689:8693   */\n      0x00\n        /* \"#utility.yul\":8727:8729   */\n      0x20\n        /* \"#utility.yul\":8716:8725   */\n      dup3\n        /* \"#utility.yul\":8712:8730   */\n      add\n        /* \"#utility.yul\":8704:8730   */\n      swap1\n      pop\n        /* \"#utility.yul\":8776:8785   */\n      dup2\n        /* \"#utility.yul\":8770:8774   */\n      dup2\n        /* \"#utility.yul\":8766:8786   */\n      sub\n        /* \"#utility.yul\":8762:8763   */\n      0x00\n        /* \"#utility.yul\":8751:8760   */\n      dup4\n        /* \"#utility.yul\":8747:8764   */\n      add\n        /* \"#utility.yul\":8740:8787   */\n      mstore\n        /* \"#utility.yul\":8804:8950   */\n      tag_180\n        /* \"#utility.yul\":8945:8949   */\n      dup2\n        /* \"#utility.yul\":8936:8942   */\n      dup5\n        /* \"#utility.yul\":8804:8950   */\n      tag_89\n      jump\t// in\n    tag_180:\n        /* \"#utility.yul\":8796:8950   */\n      swap1\n      pop\n        /* \"#utility.yul\":8508:8957   */\n      swap3\n      swap2\n      pop\n      pop\n      jump\t// out\n        /* \"#utility.yul\":8963:9143   */\n    tag_43:\n        /* \"#utility.yul\":9011:9088   */\n      0x4e487b7100000000000000000000000000000000000000000000000000000000\n        /* \"#utility.yul\":9008:9009   */\n      0x00\n        /* \"#utility.yul\":9001:9089   */\n      mstore\n        /* \"#utility.yul\":9108:9112   */\n      0x32\n        /* \"#utility.yul\":9105:9106   */\n      0x04\n        /* \"#utility.yul\":9098:9113   */\n      mstore\n        /* \"#utility.yul\":9132:9136   */\n      0x24\n        /* \"#utility.yul\":9129:9130   */\n      0x00\n        /* \"#utility.yul\":9122:9137   */\n      revert\n        /* \"#utility.yul\":9149:9318   */\n    tag_90:\n        /* \"#utility.yul\":9233:9244   */\n      0x00\n        /* \"#utility.yul\":9267:9273   */\n      dup3\n        /* \"#utility.yul\":9262:9265   */\n      dup3\n        /* \"#utility.yul\":9255:9274   */\n      mstore\n        /* \"#utility.yul\":9307:9311   */\n      0x20\n        /* \"#utility.yul\":9302:9305   */\n      dup3\n        /* \"#utility.yul\":9298:9312   */\n      add\n        /* \"#utility.yul\":9283:9312   */\n      swap1\n      pop\n        /* \"#utility.yul\":9149:9318   */\n      swap3\n      swap2\n      pop\n      pop\n      jump\t// out\n        /* \"#utility.yul\":9324:9487   */\n    tag_91:\n        /* \"#utility.yul\":9464:9479   */\n      0x496e76616c696420496e70757400000000000000000000000000000000000000\n        /* \"#utility.yul\":9460:9461   */\n      0x00\n        /* \"#utility.yul\":9452:9458   */\n      dup3\n        /* \"#utility.yul\":9448:9462   */\n      add\n        /* \"#utility.yul\":9441:9480   */\n      mstore\n        /* \"#utility.yul\":9324:9487   */\n      pop\n      jump\t// out\n        /* \"#utility.yul\":9493:9859   */\n    tag_92:\n        /* \"#utility.yul\":9635:9638   */\n      0x00\n        /* \"#utility.yul\":9656:9723   */\n      tag_185\n        /* \"#utility.yul\":9720:9722   */\n      0x0d\n        /* \"#utility.yul\":9715:9718   */\n      dup4\n        /* \"#utility.yul\":9656:9723   */\n      tag_90\n      jump\t// in\n    tag_185:\n        /* \"#utility.yul\":9649:9723   */\n      swap2\n      pop\n        /* \"#utility.yul\":9732:9825   */\n      tag_186\n        /* \"#utility.yul\":9821:9824   */\n      dup3\n        /* \"#utility.yul\":9732:9825   */\n      tag_91\n      jump\t// in\n    tag_186:\n        /* \"#utility.yul\":9850:9852   */\n      0x20\n        /* \"#utility.yul\":9845:9848   */\n      dup3\n        /* \"#utility.yul\":9841:9853   */\n      add\n        /* \"#utility.yul\":9834:9853   */\n      swap1\n      pop\n        /* \"#utility.yul\":9493:9859   */\n      swap2\n      swap1\n      pop\n      jump\t// out\n        /* \"#utility.yul\":9865:10284   */\n    tag_50:\n        /* \"#utility.yul\":10031:10035   */\n      0x00\n        /* \"#utility.yul\":10069:10071   */\n      0x20\n        /* \"#utility.yul\":10058:10067   */\n      dup3\n        /* \"#utility.yul\":10054:10072   */\n      add\n        /* \"#utility.yul\":10046:10072   */\n      swap1\n      pop\n        /* \"#utility.yul\":10118:10127   */\n      dup2\n        /* \"#utility.yul\":10112:10116   */\n      dup2\n        /* \"#utility.yul\":10108:10128   */\n      sub\n        /* \"#utility.yul\":10104:10105   */\n      0x00\n        /* \"#utility.yul\":10093:10102   */\n      dup4\n        /* \"#utility.yul\":10089:10106   */\n      add\n        /* \"#utility.yul\":10082:10129   */\n      mstore\n        /* \"#utility.yul\":10146:10277   */\n      tag_188\n        /* \"#utility.yul\":10272:10276   */\n      dup2\n        /* \"#utility.yul\":10146:10277   */\n      tag_92\n      jump\t// in\n    tag_188:\n        /* \"#utility.yul\":10138:10277   */\n      swap1\n      pop\n        /* \"#utility.yul\":9865:10284   */\n      swap2\n      swap1\n      pop\n      jump\t// out\n        /* \"#utility.yul\":10290:10460   */\n    tag_93:\n        /* \"#utility.yul\":10430:10452   */\n      0x496e73756666696369656e742042616c616e6365000000000000000000000000\n        /* \"#utility.yul\":10426:10427   */\n      0x00\n        /* \"#utility.yul\":10418:10424   */\n      dup3\n        /* \"#utility.yul\":10414:10428   */\n      add\n        /* \"#utility.yul\":10407:10453   */\n      mstore\n        /* \"#utility.yul\":10290:10460   */\n      pop\n      jump\t// out\n        /* \"#utility.yul\":10466:10832   */\n    tag_94:\n        /* \"#utility.yul\":10608:10611   */\n      0x00\n        /* \"#utility.yul\":10629:10696   */\n      tag_191\n        /* \"#utility.yul\":10693:10695   */\n      0x14\n        /* \"#utility.yul\":10688:10691   */\n      dup4\n        /* \"#utility.yul\":10629:10696   */\n      tag_90\n      jump\t// in\n    tag_191:\n        /* \"#utility.yul\":10622:10696   */\n      swap2\n      pop\n        /* \"#utility.yul\":10705:10798   */\n      tag_192\n        /* \"#utility.yul\":10794:10797   */\n      dup3\n        /* \"#utility.yul\":10705:10798   */\n      tag_93\n      jump\t// in\n    tag_192:\n        /* \"#utility.yul\":10823:10825   */\n      0x20\n        /* \"#utility.yul\":10818:10821   */\n      dup3\n        /* \"#utility.yul\":10814:10826   */\n      add\n        /* \"#utility.yul\":10807:10826   */\n      swap1\n      pop\n        /* \"#utility.yul\":10466:10832   */\n      swap2\n      swap1\n      pop\n      jump\t// out\n        /* \"#utility.yul\":10838:11257   */\n    tag_53:\n        /* \"#utility.yul\":11004:11008   */\n      0x00\n        /* \"#utility.yul\":11042:11044   */\n      0x20\n        /* \"#utility.yul\":11031:11040   */\n      dup3\n        /* \"#utility.yul\":11027:11045   */\n      add\n        /* \"#utility.yul\":11019:11045   */\n      swap1\n      pop\n        /* \"#utility.yul\":11091:11100   */\n      dup2\n        /* \"#utility.yul\":11085:11089   */\n      dup2\n        /* \"#utility.yul\":11081:11101   */\n      sub\n        /* \"#utility.yul\":11077:11078   */\n      0x00\n        /* \"#utility.yul\":11066:11075   */\n      dup4\n        /* \"#utility.yul\":11062:11079   */\n      add\n        /* \"#utility.yul\":11055:11102   */\n      mstore\n        /* \"#utility.yul\":11119:11250   */\n      tag_194\n        /* \"#utility.yul\":11245:11249   */\n      dup2\n        /* \"#utility.yul\":11119:11250   */\n      tag_94\n      jump\t// in\n    tag_194:\n        /* \"#utility.yul\":11111:11250   */\n      swap1\n      pop\n        /* \"#utility.yul\":10838:11257   */\n      swap2\n      swap1\n      pop\n      jump\t// out\n        /* \"#utility.yul\":11263:11432   */\n    tag_95:\n        /* \"#utility.yul\":11403:11424   */\n      0x42657474696e672063616e6e6f74206265203000000000000000000000000000\n        /* \"#utility.yul\":11399:11400   */\n      0x00\n        /* \"#utility.yul\":11391:11397   */\n      dup3\n        /* \"#utility.yul\":11387:11401   */\n      add\n        /* \"#utility.yul\":11380:11425   */\n      mstore\n        /* \"#utility.yul\":11263:11432   */\n      pop\n      jump\t// out\n        /* \"#utility.yul\":11438:11804   */\n    tag_96:\n        /* \"#utility.yul\":11580:11583   */\n      0x00\n        /* \"#utility.yul\":11601:11668   */\n      tag_197\n        /* \"#utility.yul\":11665:11667   */\n      0x13\n        /* \"#utility.yul\":11660:11663   */\n      dup4\n        /* \"#utility.yul\":11601:11668   */\n      tag_90\n      jump\t// in\n    tag_197:\n        /* \"#utility.yul\":11594:11668   */\n      swap2\n      pop\n        /* \"#utility.yul\":11677:11770   */\n      tag_198\n        /* \"#utility.yul\":11766:11769   */\n      dup3\n        /* \"#utility.yul\":11677:11770   */\n      tag_95\n      jump\t// in\n    tag_198:\n        /* \"#utility.yul\":11795:11797   */\n      0x20\n        /* \"#utility.yul\":11790:11793   */\n      dup3\n        /* \"#utility.yul\":11786:11798   */\n      add\n        /* \"#utility.yul\":11779:11798   */\n      swap1\n      pop\n        /* \"#utility.yul\":11438:11804   */\n      swap2\n      swap1\n      pop\n      jump\t// out\n        /* \"#utility.yul\":11810:12229   */\n    tag_56:\n        /* \"#utility.yul\":11976:11980   */\n      0x00\n        /* \"#utility.yul\":12014:12016   */\n      0x20\n        /* \"#utility.yul\":12003:12012   */\n      dup3\n        /* \"#utility.yul\":11999:12017   */\n      add\n        /* \"#utility.yul\":11991:12017   */\n      swap1\n      pop\n        /* \"#utility.yul\":12063:12072   */\n      dup2\n        /* \"#utility.yul\":12057:12061   */\n      dup2\n        /* \"#utility.yul\":12053:12073   */\n      sub\n        /* \"#utility.yul\":12049:12050   */\n      0x00\n        /* \"#utility.yul\":12038:12047   */\n      dup4\n        /* \"#utility.yul\":12034:12051   */\n      add\n        /* \"#utility.yul\":12027:12074   */\n      mstore\n        /* \"#utility.yul\":12091:12222   */\n      tag_200\n        /* \"#utility.yul\":12217:12221   */\n      dup2\n        /* \"#utility.yul\":12091:12222   */\n      tag_96\n      jump\t// in\n    tag_200:\n        /* \"#utility.yul\":12083:12222   */\n      swap1\n      pop\n        /* \"#utility.yul\":11810:12229   */\n      swap2\n      swap1\n      pop\n      jump\t// out\n        /* \"#utility.yul\":12235:12415   */\n    tag_97:\n        /* \"#utility.yul\":12283:12360   */\n      0x4e487b7100000000000000000000000000000000000000000000000000000000\n        /* \"#utility.yul\":12280:12281   */\n      0x00\n        /* \"#utility.yul\":12273:12361   */\n      mstore\n        /* \"#utility.yul\":12380:12384   */\n      0x11\n        /* \"#utility.yul\":12377:12378   */\n      0x04\n        /* \"#utility.yul\":12370:12385   */\n      mstore\n        /* \"#utility.yul\":12404:12408   */\n      0x24\n        /* \"#utility.yul\":12401:12402   */\n      0x00\n        /* \"#utility.yul\":12394:12409   */\n      revert\n        /* \"#utility.yul\":12421:12615   */\n    tag_59:\n        /* \"#utility.yul\":12461:12465   */\n      0x00\n        /* \"#utility.yul\":12481:12501   */\n      tag_203\n        /* \"#utility.yul\":12499:12500   */\n      dup3\n        /* \"#utility.yul\":12481:12501   */\n      tag_71\n      jump\t// in\n    tag_203:\n        /* \"#utility.yul\":12476:12501   */\n      swap2\n      pop\n        /* \"#utility.yul\":12515:12535   */\n      tag_204\n        /* \"#utility.yul\":12533:12534   */\n      dup4\n        /* \"#utility.yul\":12515:12535   */\n      tag_71\n      jump\t// in\n    tag_204:\n        /* \"#utility.yul\":12510:12535   */\n      swap3\n      pop\n        /* \"#utility.yul\":12559:12560   */\n      dup3\n        /* \"#utility.yul\":12556:12557   */\n      dup3\n        /* \"#utility.yul\":12552:12561   */\n      sub\n        /* \"#utility.yul\":12544:12561   */\n      swap1\n      pop\n        /* \"#utility.yul\":12583:12584   */\n      dup2\n        /* \"#utility.yul\":12577:12581   */\n      dup2\n        /* \"#utility.yul\":12574:12585   */\n      gt\n        /* \"#utility.yul\":12571:12608   */\n      iszero\n      tag_205\n      jumpi\n        /* \"#utility.yul\":12588:12606   */\n      tag_206\n      tag_97\n      jump\t// in\n    tag_206:\n        /* \"#utility.yul\":12571:12608   */\n    tag_205:\n        /* \"#utility.yul\":12421:12615   */\n      swap3\n      swap2\n      pop\n      pop\n      jump\t// out\n\n    auxdata: 0xa26469706673582212207a757d9ea74554e9220f0fb7fad74b2897642a56dddc676bdf3567ac73074d3f64736f6c634300081a0033\n}\n",
				"bytecode": {
					"linkReferences": {},
					"object": "60806040526103e86001553480156014575f80fd5b50610d0b806100225f395ff3fe608060405234801561000f575f80fd5b5060043610610060575f3560e01c8063061e494f146100645780630ef67887146100945780634a39ec90146100b2578063a61ce09b146100e6578063b8fce65314610102578063efa1c48214610132575b5f80fd5b61007e60048036038101906100799190610781565b610150565b60405161008b9190610860565b60405180910390f35b61009c610240565b6040516100a99190610888565b60405180910390f35b6100cc60048036038101906100c791906108cb565b610246565b6040516100dd959493929190610918565b60405180910390f35b61010060048036038101906100fb9190610969565b6102b0565b005b61011c600480360381019061011791906109a7565b6104e4565b6040516101299190610ae0565b60405180910390f35b61013a6105f8565b6040516101479190610ae0565b60405180910390f35b61015861070a565b5f803373ffffffffffffffffffffffffffffffffffffffff1673ffffffffffffffffffffffffffffffffffffffff1681526020019081526020015f2082815481106101a6576101a5610b00565b5b905f5260205f2090600502016040518060a00160405290815f8201548152602001600182015f9054906101000a900473ffffffffffffffffffffffffffffffffffffffff1673ffffffffffffffffffffffffffffffffffffffff1673ffffffffffffffffffffffffffffffffffffffff16815260200160028201548152602001600382015481526020016004820154815250509050919050565b60015481565b5f602052815f5260405f20818154811061025e575f80fd5b905f5260205f2090600502015f9150915050805f015490806001015f9054906101000a900473ffffffffffffffffffffffffffffffffffffffff16908060020154908060030154908060040154905085565b600a8211156102f4576040517f08c379a00000000000000000000000000000000000000000000000000000000081526004016102eb90610b87565b60405180910390fd5b806001541015610339576040517f08c379a000000000000000000000000000000000000000000000000000000000815260040161033090610bef565b60405180910390fd5b5f810361037b576040517f08c379a000000000000000000000000000000000000000000000000000000000815260040161037290610c57565b60405180910390fd5b5f6040518060a001604052805f803373ffffffffffffffffffffffffffffffffffffffff1673ffffffffffffffffffffffffffffffffffffffff1681526020019081526020015f208054905081526020013373ffffffffffffffffffffffffffffffffffffffff1681526020018481526020014281526020018381525090505f803373ffffffffffffffffffffffffffffffffffffffff1673ffffffffffffffffffffffffffffffffffffffff1681526020019081526020015f2081908060018154018082558091505060019003905f5260205f2090600502015f909190919091505f820151815f01556020820151816001015f6101000a81548173ffffffffffffffffffffffffffffffffffffffff021916908373ffffffffffffffffffffffffffffffffffffffff1602179055506040820151816002015560608201518160030155608082015181600401555050816001546104d99190610ca2565b600181905550505050565b60605f808373ffffffffffffffffffffffffffffffffffffffff1673ffffffffffffffffffffffffffffffffffffffff1681526020019081526020015f20805480602002602001604051908101604052809291908181526020015f905b828210156105ed578382905f5260205f2090600502016040518060a00160405290815f8201548152602001600182015f9054906101000a900473ffffffffffffffffffffffffffffffffffffffff1673ffffffffffffffffffffffffffffffffffffffff1673ffffffffffffffffffffffffffffffffffffffff168152602001600282015481526020016003820154815260200160048201548152505081526020019060010190610541565b505050509050919050565b60605f803373ffffffffffffffffffffffffffffffffffffffff1673ffffffffffffffffffffffffffffffffffffffff1681526020019081526020015f20805480602002602001604051908101604052809291908181526020015f905b82821015610701578382905f5260205f2090600502016040518060a00160405290815f8201548152602001600182015f9054906101000a900473ffffffffffffffffffffffffffffffffffffffff1673ffffffffffffffffffffffffffffffffffffffff1673ffffffffffffffffffffffffffffffffffffffff168152602001600282015481526020016003820154815260200160048201548152505081526020019060010190610655565b50505050905090565b6040518060a001604052805f81526020015f73ffffffffffffffffffffffffffffffffffffffff1681526020015f81526020015f81526020015f81525090565b5f80fd5b5f819050919050565b6107608161074e565b811461076a575f80fd5b50565b5f8135905061077b81610757565b92915050565b5f602082840312156107965761079561074a565b5b5f6107a38482850161076d565b91505092915050565b6107b58161074e565b82525050565b5f73ffffffffffffffffffffffffffffffffffffffff82169050919050565b5f6107e4826107bb565b9050919050565b6107f4816107da565b82525050565b60a082015f82015161080e5f8501826107ac565b50602082015161082160208501826107eb565b50604082015161083460408501826107ac565b50606082015161084760608501826107ac565b50608082015161085a60808501826107ac565b50505050565b5f60a0820190506108735f8301846107fa565b92915050565b6108828161074e565b82525050565b5f60208201905061089b5f830184610879565b92915050565b6108aa816107da565b81146108b4575f80fd5b50565b5f813590506108c5816108a1565b92915050565b5f80604083850312156108e1576108e061074a565b5b5f6108ee858286016108b7565b92505060206108ff8582860161076d565b9150509250929050565b610912816107da565b82525050565b5f60a08201905061092b5f830188610879565b6109386020830187610909565b6109456040830186610879565b6109526060830185610879565b61095f6080830184610879565b9695505050505050565b5f806040838503121561097f5761097e61074a565b5b5f61098c8582860161076d565b925050602061099d8582860161076d565b9150509250929050565b5f602082840312156109bc576109bb61074a565b5b5f6109c9848285016108b7565b91505092915050565b5f81519050919050565b5f82825260208201905092915050565b5f819050602082019050919050565b60a082015f820151610a0f5f8501826107ac565b506020820151610a2260208501826107eb565b506040820151610a3560408501826107ac565b506060820151610a4860608501826107ac565b506080820151610a5b60808501826107ac565b50505050565b5f610a6c83836109fb565b60a08301905092915050565b5f602082019050919050565b5f610a8e826109d2565b610a9881856109dc565b9350610aa3836109ec565b805f5b83811015610ad3578151610aba8882610a61565b9750610ac583610a78565b925050600181019050610aa6565b5085935050505092915050565b5f6020820190508181035f830152610af88184610a84565b905092915050565b7f4e487b71000000000000000000000000000000000000000000000000000000005f52603260045260245ffd5b5f82825260208201905092915050565b7f496e76616c696420496e707574000000000000000000000000000000000000005f82015250565b5f610b71600d83610b2d565b9150610b7c82610b3d565b602082019050919050565b5f6020820190508181035f830152610b9e81610b65565b9050919050565b7f496e73756666696369656e742042616c616e63650000000000000000000000005f82015250565b5f610bd9601483610b2d565b9150610be482610ba5565b602082019050919050565b5f6020820190508181035f830152610c0681610bcd565b9050919050565b7f42657474696e672063616e6e6f742062652030000000000000000000000000005f82015250565b5f610c41601383610b2d565b9150610c4c82610c0d565b602082019050919050565b5f6020820190508181035f830152610c6e81610c35565b9050919050565b7f4e487b71000000000000000000000000000000000000000000000000000000005f52601160045260245ffd5b5f610cac8261074e565b9150610cb78361074e565b9250828203905081811115610ccf57610cce610c75565b5b9291505056fea26469706673582212207a757d9ea74554e9220f0fb7fad74b2897642a56dddc676bdf3567ac73074d3f64736f6c634300081a0033",
					"opcodes": "PUSH1 0x80 PUSH1 0x40 MSTORE PUSH2 0x3E8 PUSH1 0x1 SSTORE CALLVALUE DUP1 ISZERO PUSH1 0x14 JUMPI PUSH0 DUP1 REVERT JUMPDEST POP PUSH2 0xD0B DUP1 PUSH2 0x22 PUSH0 CODECOPY PUSH0 RETURN INVALID PUSH1 0x80 PUSH1 0x40 MSTORE CALLVALUE DUP1 ISZERO PUSH2 0xF JUMPI PUSH0 DUP1 REVERT JUMPDEST POP PUSH1 0x4 CALLDATASIZE LT PUSH2 0x60 JUMPI PUSH0 CALLDATALOAD PUSH1 0xE0 SHR DUP1 PUSH4 0x61E494F EQ PUSH2 0x64 JUMPI DUP1 PUSH4 0xEF67887 EQ PUSH2 0x94 JUMPI DUP1 PUSH4 0x4A39EC90 EQ PUSH2 0xB2 JUMPI DUP1 PUSH4 0xA61CE09B EQ PUSH2 0xE6 JUMPI DUP1 PUSH4 0xB8FCE653 EQ PUSH2 0x102 JUMPI DUP1 PUSH4 0xEFA1C482 EQ PUSH2 0x132 JUMPI JUMPDEST PUSH0 DUP1 REVERT JUMPDEST PUSH2 0x7E PUSH1 0x4 DUP1 CALLDATASIZE SUB DUP2 ADD SWAP1 PUSH2 0x79 SWAP2 SWAP1 PUSH2 0x781 JUMP JUMPDEST PUSH2 0x150 JUMP JUMPDEST PUSH1 0x40 MLOAD PUSH2 0x8B SWAP2 SWAP1 PUSH2 0x860 JUMP JUMPDEST PUSH1 0x40 MLOAD DUP1 SWAP2 SUB SWAP1 RETURN JUMPDEST PUSH2 0x9C PUSH2 0x240 JUMP JUMPDEST PUSH1 0x40 MLOAD PUSH2 0xA9 SWAP2 SWAP1 PUSH2 0x888 JUMP JUMPDEST PUSH1 0x40 MLOAD DUP1 SWAP2 SUB SWAP1 RETURN JUMPDEST PUSH2 0xCC PUSH1 0x4 DUP1 CALLDATASIZE SUB DUP2 ADD SWAP1 PUSH2 0xC7 SWAP2 SWAP1 PUSH2 0x8CB JUMP JUMPDEST PUSH2 0x246 JUMP JUMPDEST PUSH1 0x40 MLOAD PUSH2 0xDD SWAP6 SWAP5 SWAP4 SWAP3 SWAP2 SWAP1 PUSH2 0x918 JUMP JUMPDEST PUSH1 0x40 MLOAD DUP1 SWAP2 SUB SWAP1 RETURN JUMPDEST PUSH2 0x100 PUSH1 0x4 DUP1 CALLDATASIZE SUB DUP2 ADD SWAP1 PUSH2 0xFB SWAP2 SWAP1 PUSH2 0x969 JUMP JUMPDEST PUSH2 0x2B0 JUMP JUMPDEST STOP JUMPDEST PUSH2 0x11C PUSH1 0x4 DUP1 CALLDATASIZE SUB DUP2 ADD SWAP1 PUSH2 0x117 SWAP2 SWAP1 PUSH2 0x9A7 JUMP JUMPDEST PUSH2 0x4E4 JUMP JUMPDEST PUSH1 0x40 MLOAD PUSH2 0x129 SWAP2 SWAP1 PUSH2 0xAE0 JUMP JUMPDEST PUSH1 0x40 MLOAD DUP1 SWAP2 SUB SWAP1 RETURN JUMPDEST PUSH2 0x13A PUSH2 0x5F8 JUMP JUMPDEST PUSH1 0x40 MLOAD PUSH2 0x147 SWAP2 SWAP1 PUSH2 0xAE0 JUMP JUMPDEST PUSH1 0x40 MLOAD DUP1 SWAP2 SUB SWAP1 RETURN JUMPDEST PUSH2 0x158 PUSH2 0x70A JUMP JUMPDEST PUSH0 DUP1 CALLER PUSH20 0xFFFFFFFFFFFFFFFFFFFFFFFFFFFFFFFFFFFFFFFF AND PUSH20 0xFFFFFFFFFFFFFFFFFFFFFFFFFFFFFFFFFFFFFFFF AND DUP2 MSTORE PUSH1 0x20 ADD SWAP1 DUP2 MSTORE PUSH1 0x20 ADD PUSH0 KECCAK256 DUP3 DUP2 SLOAD DUP2 LT PUSH2 0x1A6 JUMPI PUSH2 0x1A5 PUSH2 0xB00 JUMP JUMPDEST JUMPDEST SWAP1 PUSH0 MSTORE PUSH1 0x20 PUSH0 KECCAK256 SWAP1 PUSH1 0x5 MUL ADD PUSH1 0x40 MLOAD DUP1 PUSH1 0xA0 ADD PUSH1 0x40 MSTORE SWAP1 DUP2 PUSH0 DUP3 ADD SLOAD DUP2 MSTORE PUSH1 0x20 ADD PUSH1 0x1 DUP3 ADD PUSH0 SWAP1 SLOAD SWAP1 PUSH2 0x100 EXP SWAP1 DIV PUSH20 0xFFFFFFFFFFFFFFFFFFFFFFFFFFFFFFFFFFFFFFFF AND PUSH20 0xFFFFFFFFFFFFFFFFFFFFFFFFFFFFFFFFFFFFFFFF AND PUSH20 0xFFFFFFFFFFFFFFFFFFFFFFFFFFFFFFFFFFFFFFFF AND DUP2 MSTORE PUSH1 0x20 ADD PUSH1 0x2 DUP3 ADD SLOAD DUP2 MSTORE PUSH1 0x20 ADD PUSH1 0x3 DUP3 ADD SLOAD DUP2 MSTORE PUSH1 0x20 ADD PUSH1 0x4 DUP3 ADD SLOAD DUP2 MSTORE POP POP SWAP1 POP SWAP2 SWAP1 POP JUMP JUMPDEST PUSH1 0x1 SLOAD DUP2 JUMP JUMPDEST PUSH0 PUSH1 0x20 MSTORE DUP2 PUSH0 MSTORE PUSH1 0x40 PUSH0 KECCAK256 DUP2 DUP2 SLOAD DUP2 LT PUSH2 0x25E JUMPI PUSH0 DUP1 REVERT JUMPDEST SWAP1 PUSH0 MSTORE PUSH1 0x20 PUSH0 KECCAK256 SWAP1 PUSH1 0x5 MUL ADD PUSH0 SWAP2 POP SWAP2 POP POP DUP1 PUSH0 ADD SLOAD SWAP1 DUP1 PUSH1 0x1 ADD PUSH0 SWAP1 SLOAD SWAP1 PUSH2 0x100 EXP SWAP1 DIV PUSH20 0xFFFFFFFFFFFFFFFFFFFFFFFFFFFFFFFFFFFFFFFF AND SWAP1 DUP1 PUSH1 0x2 ADD SLOAD SWAP1 DUP1 PUSH1 0x3 ADD SLOAD SWAP1 DUP1 PUSH1 0x4 ADD SLOAD SWAP1 POP DUP6 JUMP JUMPDEST PUSH1 0xA DUP3 GT ISZERO PUSH2 0x2F4 JUMPI PUSH1 0x40 MLOAD PUSH32 0x8C379A000000000000000000000000000000000000000000000000000000000 DUP2 MSTORE PUSH1 0x4 ADD PUSH2 0x2EB SWAP1 PUSH2 0xB87 JUMP JUMPDEST PUSH1 0x40 MLOAD DUP1 SWAP2 SUB SWAP1 REVERT JUMPDEST DUP1 PUSH1 0x1 SLOAD LT ISZERO PUSH2 0x339 JUMPI PUSH1 0x40 MLOAD PUSH32 0x8C379A000000000000000000000000000000000000000000000000000000000 DUP2 MSTORE PUSH1 0x4 ADD PUSH2 0x330 SWAP1 PUSH2 0xBEF JUMP JUMPDEST PUSH1 0x40 MLOAD DUP1 SWAP2 SUB SWAP1 REVERT JUMPDEST PUSH0 DUP2 SUB PUSH2 0x37B JUMPI PUSH1 0x40 MLOAD PUSH32 0x8C379A000000000000000000000000000000000000000000000000000000000 DUP2 MSTORE PUSH1 0x4 ADD PUSH2 0x372 SWAP1 PUSH2 0xC57 JUMP JUMPDEST PUSH1 0x40 MLOAD DUP1 SWAP2 SUB SWAP1 REVERT JUMPDEST PUSH0 PUSH1 0x40 MLOAD DUP1 PUSH1 0xA0 ADD PUSH1 0x40 MSTORE DUP1 PUSH0 DUP1 CALLER PUSH20 0xFFFFFFFFFFFFFFFFFFFFFFFFFFFFFFFFFFFFFFFF AND PUSH20 0xFFFFFFFFFFFFFFFFFFFFFFFFFFFFFFFFFFFFFFFF AND DUP2 MSTORE PUSH1 0x20 ADD SWAP1 DUP2 MSTORE PUSH1 0x20 ADD PUSH0 KECCAK256 DUP1 SLOAD SWAP1 POP DUP2 MSTORE PUSH1 0x20 ADD CALLER PUSH20 0xFFFFFFFFFFFFFFFFFFFFFFFFFFFFFFFFFFFFFFFF AND DUP2 MSTORE PUSH1 0x20 ADD DUP5 DUP2 MSTORE PUSH1 0x20 ADD TIMESTAMP DUP2 MSTORE PUSH1 0x20 ADD DUP4 DUP2 MSTORE POP SWAP1 POP PUSH0 DUP1 CALLER PUSH20 0xFFFFFFFFFFFFFFFFFFFFFFFFFFFFFFFFFFFFFFFF AND PUSH20 0xFFFFFFFFFFFFFFFFFFFFFFFFFFFFFFFFFFFFFFFF AND DUP2 MSTORE PUSH1 0x20 ADD SWAP1 DUP2 MSTORE PUSH1 0x20 ADD PUSH0 KECCAK256 DUP2 SWAP1 DUP1 PUSH1 0x1 DUP2 SLOAD ADD DUP1 DUP3 SSTORE DUP1 SWAP2 POP POP PUSH1 0x1 SWAP1 SUB SWAP1 PUSH0 MSTORE PUSH1 0x20 PUSH0 KECCAK256 SWAP1 PUSH1 0x5 MUL ADD PUSH0 SWAP1 SWAP2 SWAP1 SWAP2 SWAP1 SWAP2 POP PUSH0 DUP3 ADD MLOAD DUP2 PUSH0 ADD SSTORE PUSH1 0x20 DUP3 ADD MLOAD DUP2 PUSH1 0x1 ADD PUSH0 PUSH2 0x100 EXP DUP2 SLOAD DUP2 PUSH20 0xFFFFFFFFFFFFFFFFFFFFFFFFFFFFFFFFFFFFFFFF MUL NOT AND SWAP1 DUP4 PUSH20 0xFFFFFFFFFFFFFFFFFFFFFFFFFFFFFFFFFFFFFFFF AND MUL OR SWAP1 SSTORE POP PUSH1 0x40 DUP3 ADD MLOAD DUP2 PUSH1 0x2 ADD SSTORE PUSH1 0x60 DUP3 ADD MLOAD DUP2 PUSH1 0x3 ADD SSTORE PUSH1 0x80 DUP3 ADD MLOAD DUP2 PUSH1 0x4 ADD SSTORE POP POP DUP2 PUSH1 0x1 SLOAD PUSH2 0x4D9 SWAP2 SWAP1 PUSH2 0xCA2 JUMP JUMPDEST PUSH1 0x1 DUP2 SWAP1 SSTORE POP POP POP POP JUMP JUMPDEST PUSH1 0x60 PUSH0 DUP1 DUP4 PUSH20 0xFFFFFFFFFFFFFFFFFFFFFFFFFFFFFFFFFFFFFFFF AND PUSH20 0xFFFFFFFFFFFFFFFFFFFFFFFFFFFFFFFFFFFFFFFF AND DUP2 MSTORE PUSH1 0x20 ADD SWAP1 DUP2 MSTORE PUSH1 0x20 ADD PUSH0 KECCAK256 DUP1 SLOAD DUP1 PUSH1 0x20 MUL PUSH1 0x20 ADD PUSH1 0x40 MLOAD SWAP1 DUP2 ADD PUSH1 0x40 MSTORE DUP1 SWAP3 SWAP2 SWAP1 DUP2 DUP2 MSTORE PUSH1 0x20 ADD PUSH0 SWAP1 JUMPDEST DUP3 DUP3 LT ISZERO PUSH2 0x5ED JUMPI DUP4 DUP3 SWAP1 PUSH0 MSTORE PUSH1 0x20 PUSH0 KECCAK256 SWAP1 PUSH1 0x5 MUL ADD PUSH1 0x40 MLOAD DUP1 PUSH1 0xA0 ADD PUSH1 0x40 MSTORE SWAP1 DUP2 PUSH0 DUP3 ADD SLOAD DUP2 MSTORE PUSH1 0x20 ADD PUSH1 0x1 DUP3 ADD PUSH0 SWAP1 SLOAD SWAP1 PUSH2 0x100 EXP SWAP1 DIV PUSH20 0xFFFFFFFFFFFFFFFFFFFFFFFFFFFFFFFFFFFFFFFF AND PUSH20 0xFFFFFFFFFFFFFFFFFFFFFFFFFFFFFFFFFFFFFFFF AND PUSH20 0xFFFFFFFFFFFFFFFFFFFFFFFFFFFFFFFFFFFFFFFF AND DUP2 MSTORE PUSH1 0x20 ADD PUSH1 0x2 DUP3 ADD SLOAD DUP2 MSTORE PUSH1 0x20 ADD PUSH1 0x3 DUP3 ADD SLOAD DUP2 MSTORE PUSH1 0x20 ADD PUSH1 0x4 DUP3 ADD SLOAD DUP2 MSTORE POP POP DUP2 MSTORE PUSH1 0x20 ADD SWAP1 PUSH1 0x1 ADD SWAP1 PUSH2 0x541 JUMP JUMPDEST POP POP POP POP SWAP1 POP SWAP2 SWAP1 POP JUMP JUMPDEST PUSH1 0x60 PUSH0 DUP1 CALLER PUSH20 0xFFFFFFFFFFFFFFFFFFFFFFFFFFFFFFFFFFFFFFFF AND PUSH20 0xFFFFFFFFFFFFFFFFFFFFFFFFFFFFFFFFFFFFFFFF AND DUP2 MSTORE PUSH1 0x20 ADD SWAP1 DUP2 MSTORE PUSH1 0x20 ADD PUSH0 KECCAK256 DUP1 SLOAD DUP1 PUSH1 0x20 MUL PUSH1 0x20 ADD PUSH1 0x40 MLOAD SWAP1 DUP2 ADD PUSH1 0x40 MSTORE DUP1 SWAP3 SWAP2 SWAP1 DUP2 DUP2 MSTORE PUSH1 0x20 ADD PUSH0 SWAP1 JUMPDEST DUP3 DUP3 LT ISZERO PUSH2 0x701 JUMPI DUP4 DUP3 SWAP1 PUSH0 MSTORE PUSH1 0x20 PUSH0 KECCAK256 SWAP1 PUSH1 0x5 MUL ADD PUSH1 0x40 MLOAD DUP1 PUSH1 0xA0 ADD PUSH1 0x40 MSTORE SWAP1 DUP2 PUSH0 DUP3 ADD SLOAD DUP2 MSTORE PUSH1 0x20 ADD PUSH1 0x1 DUP3 ADD PUSH0 SWAP1 SLOAD SWAP1 PUSH2 0x100 EXP SWAP1 DIV PUSH20 0xFFFFFFFFFFFFFFFFFFFFFFFFFFFFFFFFFFFFFFFF AND PUSH20 0xFFFFFFFFFFFFFFFFFFFFFFFFFFFFFFFFFFFFFFFF AND PUSH20 0xFFFFFFFFFFFFFFFFFFFFFFFFFFFFFFFFFFFFFFFF AND DUP2 MSTORE PUSH1 0x20 ADD PUSH1 0x2 DUP3 ADD SLOAD DUP2 MSTORE PUSH1 0x20 ADD PUSH1 0x3 DUP3 ADD SLOAD DUP2 MSTORE PUSH1 0x20 ADD PUSH1 0x4 DUP3 ADD SLOAD DUP2 MSTORE POP POP DUP2 MSTORE PUSH1 0x20 ADD SWAP1 PUSH1 0x1 ADD SWAP1 PUSH2 0x655 JUMP JUMPDEST POP POP POP POP SWAP1 POP SWAP1 JUMP JUMPDEST PUSH1 0x40 MLOAD DUP1 PUSH1 0xA0 ADD PUSH1 0x40 MSTORE DUP1 PUSH0 DUP2 MSTORE PUSH1 0x20 ADD PUSH0 PUSH20 0xFFFFFFFFFFFFFFFFFFFFFFFFFFFFFFFFFFFFFFFF AND DUP2 MSTORE PUSH1 0x20 ADD PUSH0 DUP2 MSTORE PUSH1 0x20 ADD PUSH0 DUP2 MSTORE PUSH1 0x20 ADD PUSH0 DUP2 MSTORE POP SWAP1 JUMP JUMPDEST PUSH0 DUP1 REVERT JUMPDEST PUSH0 DUP2 SWAP1 POP SWAP2 SWAP1 POP JUMP JUMPDEST PUSH2 0x760 DUP2 PUSH2 0x74E JUMP JUMPDEST DUP2 EQ PUSH2 0x76A JUMPI PUSH0 DUP1 REVERT JUMPDEST POP JUMP JUMPDEST PUSH0 DUP2 CALLDATALOAD SWAP1 POP PUSH2 0x77B DUP2 PUSH2 0x757 JUMP JUMPDEST SWAP3 SWAP2 POP POP JUMP JUMPDEST PUSH0 PUSH1 0x20 DUP3 DUP5 SUB SLT ISZERO PUSH2 0x796 JUMPI PUSH2 0x795 PUSH2 0x74A JUMP JUMPDEST JUMPDEST PUSH0 PUSH2 0x7A3 DUP5 DUP3 DUP6 ADD PUSH2 0x76D JUMP JUMPDEST SWAP2 POP POP SWAP3 SWAP2 POP POP JUMP JUMPDEST PUSH2 0x7B5 DUP2 PUSH2 0x74E JUMP JUMPDEST DUP3 MSTORE POP POP JUMP JUMPDEST PUSH0 PUSH20 0xFFFFFFFFFFFFFFFFFFFFFFFFFFFFFFFFFFFFFFFF DUP3 AND SWAP1 POP SWAP2 SWAP1 POP JUMP JUMPDEST PUSH0 PUSH2 0x7E4 DUP3 PUSH2 0x7BB JUMP JUMPDEST SWAP1 POP SWAP2 SWAP1 POP JUMP JUMPDEST PUSH2 0x7F4 DUP2 PUSH2 0x7DA JUMP JUMPDEST DUP3 MSTORE POP POP JUMP JUMPDEST PUSH1 0xA0 DUP3 ADD PUSH0 DUP3 ADD MLOAD PUSH2 0x80E PUSH0 DUP6 ADD DUP3 PUSH2 0x7AC JUMP JUMPDEST POP PUSH1 0x20 DUP3 ADD MLOAD PUSH2 0x821 PUSH1 0x20 DUP6 ADD DUP3 PUSH2 0x7EB JUMP JUMPDEST POP PUSH1 0x40 DUP3 ADD MLOAD PUSH2 0x834 PUSH1 0x40 DUP6 ADD DUP3 PUSH2 0x7AC JUMP JUMPDEST POP PUSH1 0x60 DUP3 ADD MLOAD PUSH2 0x847 PUSH1 0x60 DUP6 ADD DUP3 PUSH2 0x7AC JUMP JUMPDEST POP PUSH1 0x80 DUP3 ADD MLOAD PUSH2 0x85A PUSH1 0x80 DUP6 ADD DUP3 PUSH2 0x7AC JUMP JUMPDEST POP POP POP POP JUMP JUMPDEST PUSH0 PUSH1 0xA0 DUP3 ADD SWAP1 POP PUSH2 0x873 PUSH0 DUP4 ADD DUP5 PUSH2 0x7FA JUMP JUMPDEST SWAP3 SWAP2 POP POP JUMP JUMPDEST PUSH2 0x882 DUP2 PUSH2 0x74E JUMP JUMPDEST DUP3 MSTORE POP POP JUMP JUMPDEST PUSH0 PUSH1 0x20 DUP3 ADD SWAP1 POP PUSH2 0x89B PUSH0 DUP4 ADD DUP5 PUSH2 0x879 JUMP JUMPDEST SWAP3 SWAP2 POP POP JUMP JUMPDEST PUSH2 0x8AA DUP2 PUSH2 0x7DA JUMP JUMPDEST DUP2 EQ PUSH2 0x8B4 JUMPI PUSH0 DUP1 REVERT JUMPDEST POP JUMP JUMPDEST PUSH0 DUP2 CALLDATALOAD SWAP1 POP PUSH2 0x8C5 DUP2 PUSH2 0x8A1 JUMP JUMPDEST SWAP3 SWAP2 POP POP JUMP JUMPDEST PUSH0 DUP1 PUSH1 0x40 DUP4 DUP6 SUB SLT ISZERO PUSH2 0x8E1 JUMPI PUSH2 0x8E0 PUSH2 0x74A JUMP JUMPDEST JUMPDEST PUSH0 PUSH2 0x8EE DUP6 DUP3 DUP7 ADD PUSH2 0x8B7 JUMP JUMPDEST SWAP3 POP POP PUSH1 0x20 PUSH2 0x8FF DUP6 DUP3 DUP7 ADD PUSH2 0x76D JUMP JUMPDEST SWAP2 POP POP SWAP3 POP SWAP3 SWAP1 POP JUMP JUMPDEST PUSH2 0x912 DUP2 PUSH2 0x7DA JUMP JUMPDEST DUP3 MSTORE POP POP JUMP JUMPDEST PUSH0 PUSH1 0xA0 DUP3 ADD SWAP1 POP PUSH2 0x92B PUSH0 DUP4 ADD DUP9 PUSH2 0x879 JUMP JUMPDEST PUSH2 0x938 PUSH1 0x20 DUP4 ADD DUP8 PUSH2 0x909 JUMP JUMPDEST PUSH2 0x945 PUSH1 0x40 DUP4 ADD DUP7 PUSH2 0x879 JUMP JUMPDEST PUSH2 0x952 PUSH1 0x60 DUP4 ADD DUP6 PUSH2 0x879 JUMP JUMPDEST PUSH2 0x95F PUSH1 0x80 DUP4 ADD DUP5 PUSH2 0x879 JUMP JUMPDEST SWAP7 SWAP6 POP POP POP POP POP POP JUMP JUMPDEST PUSH0 DUP1 PUSH1 0x40 DUP4 DUP6 SUB SLT ISZERO PUSH2 0x97F JUMPI PUSH2 0x97E PUSH2 0x74A JUMP JUMPDEST JUMPDEST PUSH0 PUSH2 0x98C DUP6 DUP3 DUP7 ADD PUSH2 0x76D JUMP JUMPDEST SWAP3 POP POP PUSH1 0x20 PUSH2 0x99D DUP6 DUP3 DUP7 ADD PUSH2 0x76D JUMP JUMPDEST SWAP2 POP POP SWAP3 POP SWAP3 SWAP1 POP JUMP JUMPDEST PUSH0 PUSH1 0x20 DUP3 DUP5 SUB SLT ISZERO PUSH2 0x9BC JUMPI PUSH2 0x9BB PUSH2 0x74A JUMP JUMPDEST JUMPDEST PUSH0 PUSH2 0x9C9 DUP5 DUP3 DUP6 ADD PUSH2 0x8B7 JUMP JUMPDEST SWAP2 POP POP SWAP3 SWAP2 POP POP JUMP JUMPDEST PUSH0 DUP2 MLOAD SWAP1 POP SWAP2 SWAP1 POP JUMP JUMPDEST PUSH0 DUP3 DUP3 MSTORE PUSH1 0x20 DUP3 ADD SWAP1 POP SWAP3 SWAP2 POP POP JUMP JUMPDEST PUSH0 DUP2 SWAP1 POP PUSH1 0x20 DUP3 ADD SWAP1 POP SWAP2 SWAP1 POP JUMP JUMPDEST PUSH1 0xA0 DUP3 ADD PUSH0 DUP3 ADD MLOAD PUSH2 0xA0F PUSH0 DUP6 ADD DUP3 PUSH2 0x7AC JUMP JUMPDEST POP PUSH1 0x20 DUP3 ADD MLOAD PUSH2 0xA22 PUSH1 0x20 DUP6 ADD DUP3 PUSH2 0x7EB JUMP JUMPDEST POP PUSH1 0x40 DUP3 ADD MLOAD PUSH2 0xA35 PUSH1 0x40 DUP6 ADD DUP3 PUSH2 0x7AC JUMP JUMPDEST POP PUSH1 0x60 DUP3 ADD MLOAD PUSH2 0xA48 PUSH1 0x60 DUP6 ADD DUP3 PUSH2 0x7AC JUMP JUMPDEST POP PUSH1 0x80 DUP3 ADD MLOAD PUSH2 0xA5B PUSH1 0x80 DUP6 ADD DUP3 PUSH2 0x7AC JUMP JUMPDEST POP POP POP POP JUMP JUMPDEST PUSH0 PUSH2 0xA6C DUP4 DUP4 PUSH2 0x9FB JUMP JUMPDEST PUSH1 0xA0 DUP4 ADD SWAP1 POP SWAP3 SWAP2 POP POP JUMP JUMPDEST PUSH0 PUSH1 0x20 DUP3 ADD SWAP1 POP SWAP2 SWAP1 POP JUMP JUMPDEST PUSH0 PUSH2 0xA8E DUP3 PUSH2 0x9D2 JUMP JUMPDEST PUSH2 0xA98 DUP2 DUP6 PUSH2 0x9DC JUMP JUMPDEST SWAP4 POP PUSH2 0xAA3 DUP4 PUSH2 0x9EC JUMP JUMPDEST DUP1 PUSH0 JUMPDEST DUP4 DUP2 LT ISZERO PUSH2 0xAD3 JUMPI DUP2 MLOAD PUSH2 0xABA DUP9 DUP3 PUSH2 0xA61 JUMP JUMPDEST SWAP8 POP PUSH2 0xAC5 DUP4 PUSH2 0xA78 JUMP JUMPDEST SWAP3 POP POP PUSH1 0x1 DUP2 ADD SWAP1 POP PUSH2 0xAA6 JUMP JUMPDEST POP DUP6 SWAP4 POP POP POP POP SWAP3 SWAP2 POP POP JUMP JUMPDEST PUSH0 PUSH1 0x20 DUP3 ADD SWAP1 POP DUP2 DUP2 SUB PUSH0 DUP4 ADD MSTORE PUSH2 0xAF8 DUP2 DUP5 PUSH2 0xA84 JUMP JUMPDEST SWAP1 POP SWAP3 SWAP2 POP POP JUMP JUMPDEST PUSH32 0x4E487B7100000000000000000000000000000000000000000000000000000000 PUSH0 MSTORE PUSH1 0x32 PUSH1 0x4 MSTORE PUSH1 0x24 PUSH0 REVERT JUMPDEST PUSH0 DUP3 DUP3 MSTORE PUSH1 0x20 DUP3 ADD SWAP1 POP SWAP3 SWAP2 POP POP JUMP JUMPDEST PUSH32 0x496E76616C696420496E70757400000000000000000000000000000000000000 PUSH0 DUP3 ADD MSTORE POP JUMP JUMPDEST PUSH0 PUSH2 0xB71 PUSH1 0xD DUP4 PUSH2 0xB2D JUMP JUMPDEST SWAP2 POP PUSH2 0xB7C DUP3 PUSH2 0xB3D JUMP JUMPDEST PUSH1 0x20 DUP3 ADD SWAP1 POP SWAP2 SWAP1 POP JUMP JUMPDEST PUSH0 PUSH1 0x20 DUP3 ADD SWAP1 POP DUP2 DUP2 SUB PUSH0 DUP4 ADD MSTORE PUSH2 0xB9E DUP2 PUSH2 0xB65 JUMP JUMPDEST SWAP1 POP SWAP2 SWAP1 POP JUMP JUMPDEST PUSH32 0x496E73756666696369656E742042616C616E6365000000000000000000000000 PUSH0 DUP3 ADD MSTORE POP JUMP JUMPDEST PUSH0 PUSH2 0xBD9 PUSH1 0x14 DUP4 PUSH2 0xB2D JUMP JUMPDEST SWAP2 POP PUSH2 0xBE4 DUP3 PUSH2 0xBA5 JUMP JUMPDEST PUSH1 0x20 DUP3 ADD SWAP1 POP SWAP2 SWAP1 POP JUMP JUMPDEST PUSH0 PUSH1 0x20 DUP3 ADD SWAP1 POP DUP2 DUP2 SUB PUSH0 DUP4 ADD MSTORE PUSH2 0xC06 DUP2 PUSH2 0xBCD JUMP JUMPDEST SWAP1 POP SWAP2 SWAP1 POP JUMP JUMPDEST PUSH32 0x42657474696E672063616E6E6F74206265203000000000000000000000000000 PUSH0 DUP3 ADD MSTORE POP JUMP JUMPDEST PUSH0 PUSH2 0xC41 PUSH1 0x13 DUP4 PUSH2 0xB2D JUMP JUMPDEST SWAP2 POP PUSH2 0xC4C DUP3 PUSH2 0xC0D JUMP JUMPDEST PUSH1 0x20 DUP3 ADD SWAP1 POP SWAP2 SWAP1 POP JUMP JUMPDEST PUSH0 PUSH1 0x20 DUP3 ADD SWAP1 POP DUP2 DUP2 SUB PUSH0 DUP4 ADD MSTORE PUSH2 0xC6E DUP2 PUSH2 0xC35 JUMP JUMPDEST SWAP1 POP SWAP2 SWAP1 POP JUMP JUMPDEST PUSH32 0x4E487B7100000000000000000000000000000000000000000000000000000000 PUSH0 MSTORE PUSH1 0x11 PUSH1 0x4 MSTORE PUSH1 0x24 PUSH0 REVERT JUMPDEST PUSH0 PUSH2 0xCAC DUP3 PUSH2 0x74E JUMP JUMPDEST SWAP2 POP PUSH2 0xCB7 DUP4 PUSH2 0x74E JUMP JUMPDEST SWAP3 POP DUP3 DUP3 SUB SWAP1 POP DUP2 DUP2 GT ISZERO PUSH2 0xCCF JUMPI PUSH2 0xCCE PUSH2 0xC75 JUMP JUMPDEST JUMPDEST SWAP3 SWAP2 POP POP JUMP INVALID LOG2 PUSH5 0x6970667358 0x22 SLT KECCAK256 PUSH27 0x757D9EA74554E9220F0FB7FAD74B2897642A56DDDC676BDF3567AC PUSH20 0x74D3F64736F6C634300081A0033000000000000 "
				},
				"gasEstimates": {
					"creation": {
						"codeDepositCost": "667800",
						"executionCost": "22806",
						"totalCost": "690606"
					},
					"external": {
						"Balance()": "2425",
						"bets(address,uint256)": "infinite",
						"getAllBet(address)": "infinite",
						"getAllPlayers()": "infinite",
						"getBet(uint256)": "infinite",
						"updatebalance(uint256,uint256)": "infinite"
					}
				},
				"methodIdentifiers": {
					"Balance()": "0ef67887",
					"bets(address,uint256)": "4a39ec90",
					"getAllBet(address)": "b8fce653",
					"getAllPlayers()": "efa1c482",
					"getBet(uint256)": "061e494f",
					"updatebalance(uint256,uint256)": "a61ce09b"
				}
			},
			"storageLayout": {
				"storage": [
					{
						"astId": 19,
						"contract": "contracts/DGameApp.sol:DGameApp",
						"label": "bets",
						"offset": 0,
						"slot": "0",
						"type": "t_mapping(t_address,t_array(t_struct(Bet)13_storage)dyn_storage)"
					},
					{
						"astId": 22,
						"contract": "contracts/DGameApp.sol:DGameApp",
						"label": "Balance",
						"offset": 0,
						"slot": "1",
						"type": "t_uint256"
					}
				],
				"types": {
					"t_address": {
						"encoding": "inplace",
						"label": "address",
						"numberOfBytes": "20"
					},
					"t_array(t_struct(Bet)13_storage)dyn_storage": {
						"base": "t_struct(Bet)13_storage",
						"encoding": "dynamic_array",
						"label": "struct DGameApp.Bet[]",
						"numberOfBytes": "32"
					},
					"t_mapping(t_address,t_array(t_struct(Bet)13_storage)dyn_storage)": {
						"encoding": "mapping",
						"key": "t_address",
						"label": "mapping(address => struct DGameApp.Bet[])",
						"numberOfBytes": "32",
						"value": "t_array(t_struct(Bet)13_storage)dyn_storage"
					},
					"t_struct(Bet)13_storage": {
						"encoding": "inplace",
						"label": "struct DGameApp.Bet",
						"members": [
							{
								"astId": 4,
								"contract": "contracts/DGameApp.sol:DGameApp",
								"label": "id",
								"offset": 0,
								"slot": "0",
								"type": "t_uint256"
							},
							{
								"astId": 6,
								"contract": "contracts/DGameApp.sol:DGameApp",
								"label": "owner",
								"offset": 0,
								"slot": "1",
								"type": "t_address"
							},
							{
								"astId": 8,
								"contract": "contracts/DGameApp.sol:DGameApp",
								"label": "option",
								"offset": 0,
								"slot": "2",
								"type": "t_uint256"
							},
							{
								"astId": 10,
								"contract": "contracts/DGameApp.sol:DGameApp",
								"label": "timeSpan",
								"offset": 0,
								"slot": "3",
								"type": "t_uint256"
							},
							{
								"astId": 12,
								"contract": "contracts/DGameApp.sol:DGameApp",
								"label": "betPrice",
								"offset": 0,
								"slot": "4",
								"type": "t_uint256"
							}
						],
						"numberOfBytes": "160"
					},
					"t_uint256": {
						"encoding": "inplace",
						"label": "uint256",
						"numberOfBytes": "32"
					}
				}
			},
			"userdoc": {
				"kind": "user",
				"methods": {},
				"version": 1
			}
		}
	}
}